{
  "contractName": "CoffeeSupplyChain",
  "abi": [
    {
      "inputs": [
        {
          "internalType": "address",
          "name": "_supplyChainAddress",
          "type": "address"
        }
      ],
      "stateMutability": "nonpayable",
      "type": "constructor"
    },
    {
      "anonymous": false,
      "inputs": [
        {
          "indexed": true,
          "internalType": "address",
          "name": "user",
          "type": "address"
        },
        {
          "indexed": true,
          "internalType": "address",
          "name": "batchNo",
          "type": "address"
        }
      ],
      "name": "DoneExporting",
      "type": "event"
    },
    {
      "anonymous": false,
      "inputs": [
        {
          "indexed": true,
          "internalType": "address",
          "name": "user",
          "type": "address"
        },
        {
          "indexed": true,
          "internalType": "address",
          "name": "batchNo",
          "type": "address"
        }
      ],
      "name": "DoneHarvesting",
      "type": "event"
    },
    {
      "anonymous": false,
      "inputs": [
        {
          "indexed": true,
          "internalType": "address",
          "name": "user",
          "type": "address"
        },
        {
          "indexed": true,
          "internalType": "address",
          "name": "batchNo",
          "type": "address"
        }
      ],
      "name": "DoneImporting",
      "type": "event"
    },
    {
      "anonymous": false,
      "inputs": [
        {
          "indexed": true,
          "internalType": "address",
          "name": "user",
          "type": "address"
        },
        {
          "indexed": true,
          "internalType": "address",
          "name": "batchNo",
          "type": "address"
        }
      ],
      "name": "DoneInspection",
      "type": "event"
    },
    {
      "anonymous": false,
      "inputs": [
        {
          "indexed": true,
          "internalType": "address",
          "name": "user",
          "type": "address"
        },
        {
          "indexed": true,
          "internalType": "address",
          "name": "batchNo",
          "type": "address"
        }
      ],
      "name": "DoneProcessing",
      "type": "event"
    },
    {
      "anonymous": false,
      "inputs": [
        {
          "indexed": true,
          "internalType": "address",
          "name": "previousOwner",
          "type": "address"
        }
      ],
      "name": "OwnershipRenounced",
      "type": "event"
    },
    {
      "anonymous": false,
      "inputs": [
        {
          "indexed": true,
          "internalType": "address",
          "name": "previousOwner",
          "type": "address"
        },
        {
          "indexed": true,
          "internalType": "address",
          "name": "newOwner",
          "type": "address"
        }
      ],
      "name": "OwnershipTransferred",
      "type": "event"
    },
    {
      "anonymous": false,
      "inputs": [
        {
          "indexed": true,
          "internalType": "address",
          "name": "user",
          "type": "address"
        },
        {
          "indexed": true,
          "internalType": "address",
          "name": "batchNo",
          "type": "address"
        }
      ],
      "name": "PerformCultivation",
      "type": "event"
    },
    {
      "inputs": [],
      "name": "owner",
      "outputs": [
        {
          "internalType": "address",
          "name": "",
          "type": "address"
        }
      ],
      "stateMutability": "view",
      "type": "function",
      "constant": true
    },
    {
      "inputs": [],
      "name": "renounceOwnership",
      "outputs": [],
      "stateMutability": "nonpayable",
      "type": "function"
    },
    {
      "inputs": [
        {
          "internalType": "address",
          "name": "newOwner",
          "type": "address"
        }
      ],
      "name": "transferOwnership",
      "outputs": [],
      "stateMutability": "nonpayable",
      "type": "function"
    },
    {
      "inputs": [
        {
          "internalType": "address",
          "name": "_batchNo",
          "type": "address"
        }
      ],
      "name": "getNextAction",
      "outputs": [
        {
          "internalType": "string",
          "name": "action",
          "type": "string"
        }
      ],
      "stateMutability": "view",
      "type": "function",
      "constant": true
    },
    {
      "inputs": [
        {
          "internalType": "address",
          "name": "_batchNo",
          "type": "address"
        }
      ],
      "name": "getBasicDetails",
      "outputs": [
        {
          "internalType": "string",
          "name": "registrationNo",
          "type": "string"
        },
        {
          "internalType": "string",
          "name": "farmerName",
          "type": "string"
        },
        {
          "internalType": "string",
          "name": "farmAddress",
          "type": "string"
        },
        {
          "internalType": "string",
          "name": "exporterName",
          "type": "string"
        },
        {
          "internalType": "string",
          "name": "importerName",
          "type": "string"
        }
      ],
      "stateMutability": "view",
      "type": "function",
      "constant": true
    },
    {
      "inputs": [
        {
          "internalType": "string",
          "name": "_registrationNo",
          "type": "string"
        },
        {
          "internalType": "string",
          "name": "_farmerName",
          "type": "string"
        },
        {
          "internalType": "string",
          "name": "_farmAddress",
          "type": "string"
        },
        {
          "internalType": "string",
          "name": "_exporterName",
          "type": "string"
        },
        {
          "internalType": "string",
          "name": "_importerName",
          "type": "string"
        }
      ],
      "name": "addBasicDetails",
      "outputs": [
        {
          "internalType": "address",
          "name": "",
          "type": "address"
        }
      ],
      "stateMutability": "nonpayable",
      "type": "function"
    },
    {
      "inputs": [
        {
          "internalType": "address",
          "name": "_batchNo",
          "type": "address"
        }
      ],
      "name": "getFarmInspectorData",
      "outputs": [
        {
          "internalType": "string",
          "name": "coffeeFamily",
          "type": "string"
        },
        {
          "internalType": "string",
          "name": "typeOfSeed",
          "type": "string"
        },
        {
          "internalType": "string",
          "name": "fertilizerUsed",
          "type": "string"
        }
      ],
      "stateMutability": "view",
      "type": "function",
      "constant": true
    },
    {
      "inputs": [
        {
          "internalType": "address",
          "name": "_batchNo",
          "type": "address"
        },
        {
          "internalType": "string",
          "name": "_coffeeFamily",
          "type": "string"
        },
        {
          "internalType": "string",
          "name": "_typeOfSeed",
          "type": "string"
        },
        {
          "internalType": "string",
          "name": "_fertilizerUsed",
          "type": "string"
        }
      ],
      "name": "updateFarmInspectorData",
      "outputs": [
        {
          "internalType": "bool",
          "name": "",
          "type": "bool"
        }
      ],
      "stateMutability": "nonpayable",
      "type": "function"
    },
    {
      "inputs": [
        {
          "internalType": "address",
          "name": "_batchNo",
          "type": "address"
        }
      ],
      "name": "getHarvesterData",
      "outputs": [
        {
          "internalType": "string",
          "name": "cropVariety",
          "type": "string"
        },
        {
          "internalType": "string",
          "name": "temperatureUsed",
          "type": "string"
        },
        {
          "internalType": "string",
          "name": "humidity",
          "type": "string"
        }
      ],
      "stateMutability": "view",
      "type": "function",
      "constant": true
    },
    {
      "inputs": [
        {
          "internalType": "address",
          "name": "_batchNo",
          "type": "address"
        },
        {
          "internalType": "string",
          "name": "_cropVariety",
          "type": "string"
        },
        {
          "internalType": "string",
          "name": "_temperatureUsed",
          "type": "string"
        },
        {
          "internalType": "string",
          "name": "_humidity",
          "type": "string"
        }
      ],
      "name": "updateHarvesterData",
      "outputs": [
        {
          "internalType": "bool",
          "name": "",
          "type": "bool"
        }
      ],
      "stateMutability": "nonpayable",
      "type": "function"
    },
    {
      "inputs": [
        {
          "internalType": "address",
          "name": "_batchNo",
          "type": "address"
        }
      ],
      "name": "getExporterData",
      "outputs": [
        {
          "internalType": "uint256",
          "name": "quantity",
          "type": "uint256"
        },
        {
          "internalType": "string",
          "name": "destinationAddress",
          "type": "string"
        },
        {
          "internalType": "string",
          "name": "shipName",
          "type": "string"
        },
        {
          "internalType": "string",
          "name": "shipNo",
          "type": "string"
        },
        {
          "internalType": "uint256",
          "name": "departureDateTime",
          "type": "uint256"
        },
        {
          "internalType": "uint256",
          "name": "estimateDateTime",
          "type": "uint256"
        },
        {
          "internalType": "uint256",
          "name": "exporterId",
          "type": "uint256"
        }
      ],
      "stateMutability": "view",
      "type": "function",
      "constant": true
    },
    {
      "inputs": [
        {
          "internalType": "address",
          "name": "_batchNo",
          "type": "address"
        },
        {
          "internalType": "uint256",
          "name": "_quantity",
          "type": "uint256"
        },
        {
          "internalType": "string",
          "name": "_destinationAddress",
          "type": "string"
        },
        {
          "internalType": "string",
          "name": "_shipName",
          "type": "string"
        },
        {
          "internalType": "string",
          "name": "_shipNo",
          "type": "string"
        },
        {
          "internalType": "uint256",
          "name": "_estimateDateTime",
          "type": "uint256"
        },
        {
          "internalType": "uint256",
          "name": "_exporterId",
          "type": "uint256"
        }
      ],
      "name": "updateExporterData",
      "outputs": [
        {
          "internalType": "bool",
          "name": "",
          "type": "bool"
        }
      ],
      "stateMutability": "nonpayable",
      "type": "function"
    },
    {
      "inputs": [
        {
          "internalType": "address",
          "name": "_batchNo",
          "type": "address"
        }
      ],
      "name": "getImporterData",
      "outputs": [
        {
          "internalType": "uint256",
          "name": "quantity",
          "type": "uint256"
        },
        {
          "internalType": "string",
          "name": "shipName",
          "type": "string"
        },
        {
          "internalType": "string",
          "name": "shipNo",
          "type": "string"
        },
        {
          "internalType": "uint256",
          "name": "arrivalDateTime",
          "type": "uint256"
        },
        {
          "internalType": "string",
          "name": "transportInfo",
          "type": "string"
        },
        {
          "internalType": "string",
          "name": "warehouseName",
          "type": "string"
        },
        {
          "internalType": "string",
          "name": "warehouseAddress",
          "type": "string"
        },
        {
          "internalType": "uint256",
          "name": "importerId",
          "type": "uint256"
        }
      ],
      "stateMutability": "view",
      "type": "function",
      "constant": true
    },
    {
      "inputs": [
        {
          "internalType": "address",
          "name": "_batchNo",
          "type": "address"
        },
        {
          "internalType": "uint256",
          "name": "_quantity",
          "type": "uint256"
        },
        {
          "internalType": "string",
          "name": "_shipName",
          "type": "string"
        },
        {
          "internalType": "string",
          "name": "_shipNo",
          "type": "string"
        },
        {
          "internalType": "string",
          "name": "_transportInfo",
          "type": "string"
        },
        {
          "internalType": "string",
          "name": "_warehouseName",
          "type": "string"
        },
        {
          "internalType": "string",
          "name": "_warehouseAddress",
          "type": "string"
        },
        {
          "internalType": "uint256",
          "name": "_importerId",
          "type": "uint256"
        }
      ],
      "name": "updateImporterData",
      "outputs": [
        {
          "internalType": "bool",
          "name": "",
          "type": "bool"
        }
      ],
      "stateMutability": "nonpayable",
      "type": "function"
    },
    {
      "inputs": [
        {
          "internalType": "address",
          "name": "_batchNo",
          "type": "address"
        }
      ],
      "name": "getProcessorData",
      "outputs": [
        {
          "internalType": "uint256",
          "name": "quantity",
          "type": "uint256"
        },
        {
          "internalType": "string",
          "name": "temperature",
          "type": "string"
        },
        {
          "internalType": "uint256",
          "name": "rostingDuration",
          "type": "uint256"
        },
        {
          "internalType": "string",
          "name": "internalBatchNo",
          "type": "string"
        },
        {
          "internalType": "uint256",
          "name": "packageDateTime",
          "type": "uint256"
        },
        {
          "internalType": "string",
          "name": "processorName",
          "type": "string"
        },
        {
          "internalType": "string",
          "name": "processorAddress",
          "type": "string"
        }
      ],
      "stateMutability": "view",
      "type": "function",
      "constant": true
    },
    {
      "inputs": [
        {
          "internalType": "address",
          "name": "_batchNo",
          "type": "address"
        },
        {
          "internalType": "uint256",
          "name": "_quantity",
          "type": "uint256"
        },
        {
          "internalType": "string",
          "name": "_temperature",
          "type": "string"
        },
        {
          "internalType": "uint256",
          "name": "_rostingDuration",
          "type": "uint256"
        },
        {
          "internalType": "string",
          "name": "_internalBatchNo",
          "type": "string"
        },
        {
          "internalType": "uint256",
          "name": "_packageDateTime",
          "type": "uint256"
        },
        {
          "internalType": "string",
          "name": "_processorName",
          "type": "string"
        },
        {
          "internalType": "string",
          "name": "_processorAddress",
          "type": "string"
        }
      ],
      "name": "updateProcessorData",
      "outputs": [
        {
          "internalType": "bool",
          "name": "",
          "type": "bool"
        }
      ],
      "stateMutability": "nonpayable",
      "type": "function"
    }
  ],
  "bytecode": "0x60806040523480156200001157600080fd5b50604051620032b0380380620032b08339818101604052810190620000379190620000d6565b336000806101000a81548173ffffffffffffffffffffffffffffffffffffffff021916908373ffffffffffffffffffffffffffffffffffffffff16021790555080600160006101000a81548173ffffffffffffffffffffffffffffffffffffffff021916908373ffffffffffffffffffffffffffffffffffffffff1602179055505062000150565b600081519050620000d08162000136565b92915050565b600060208284031215620000e957600080fd5b6000620000f984828501620000bf565b91505092915050565b60006200010f8262000116565b9050919050565b600073ffffffffffffffffffffffffffffffffffffffff82169050919050565b620001418162000102565b81146200014d57600080fd5b50565b61315080620001606000396000f3fe608060405234801561001057600080fd5b50600436106101005760003560e01c806389d42c2e11610097578063ebca7e1c11610066578063ebca7e1c1461031d578063f2997d761461034d578063f2fde38b14610381578063febd04921461039d57610100565b806389d42c2e146102675780638da5cb5b14610297578063b6959d73146102b5578063ca5322e5146102eb57610100565b80634d6b5e00116100d35780634d6b5e00146101cb578063715018a6146101fb5780637f89e94b1461020557806381f960c21461023757610100565b806302e716ca1461010557806306ecd6d414610135578063472901181461016b5780634b2051221461019b575b600080fd5b61011f600480360381019061011a91906120e3565b6103d4565b60405161012c9190612cd4565b60405180910390f35b61014f600480360381019061014a9190611fe6565b610746565b6040516101629796959493929190612dd3565b60405180910390f35b6101856004803603810190610180919061220d565b610829565b6040516101929190612cd4565b60405180910390f35b6101b560048036038101906101b09190612506565b610b98565b6040516101c29190612aa0565b60405180910390f35b6101e560048036038101906101e09190611fe6565b610d13565b6040516101f29190612cef565b60405180910390f35b610203610dcc565b005b61021f600480360381019061021a9190611fe6565b610eca565b60405161022e93929190612d11565b60405180910390f35b610251600480360381019061024c9190612038565b610f92565b60405161025e9190612cd4565b60405180910390f35b610281600480360381019061027c91906122f3565b6112f8565b60405161028e9190612cd4565b60405180910390f35b61029f61166a565b6040516102ac9190612aa0565b60405180910390f35b6102cf60048036038101906102ca9190611fe6565b61168e565b6040516102e29796959493929190612ef8565b60405180910390f35b61030560048036038101906103009190611fe6565b611772565b60405161031493929190612d11565b60405180910390f35b61033760048036038101906103329190612038565b61183a565b6040516103449190612cd4565b60405180910390f35b61036760048036038101906103629190611fe6565b611ba0565b604051610378959493929190612d5d565b60405180910390f35b61039b60048036038101906103969190611fe6565b611c75565b005b6103b760048036038101906103b29190611fe6565b611dc4565b6040516103cb989796959493929190612e57565b60405180910390f35b6000886040518060400160405280600881526020017f494d504f525445520000000000000000000000000000000000000000000000008152508060405160200161041e9190612a89565b60405160208183030381529060405280519060200120600160009054906101000a900473ffffffffffffffffffffffffffffffffffffffff1673ffffffffffffffffffffffffffffffffffffffff166327820851336040518263ffffffff1660e01b815260040161048f9190612aa0565b60006040518083038186803b1580156104a757600080fd5b505afa1580156104bb573d6000803e3d6000fd5b505050506040513d6000823e3d601f19601f820116820180604052508101906104e4919061242e565b6040516020016104f49190612a89565b604051602081830303815290604052805190602001201461051457600080fd5b806040516020016105259190612a89565b60405160208183030381529060405280519060200120600160009054906101000a900473ffffffffffffffffffffffffffffffffffffffff1673ffffffffffffffffffffffffffffffffffffffff16634d6b5e00846040518263ffffffff1660e01b81526004016105969190612aa0565b60006040518083038186803b1580156105ae57600080fd5b505afa1580156105c2573d6000803e3d6000fd5b505050506040513d6000823e3d601f19601f820116820180604052508101906105eb919061242e565b6040516020016105fb9190612a89565b604051602081830303815290604052805190602001201461061b57600080fd5b6000600160009054906101000a900473ffffffffffffffffffffffffffffffffffffffff1673ffffffffffffffffffffffffffffffffffffffff16636115eec28d8d8d8d8d8d8d8d6040518963ffffffff1660e01b8152600401610686989796959493929190612b15565b602060405180830381600087803b1580156106a057600080fd5b505af11580156106b4573d6000803e3d6000fd5b505050506040513d601f19601f820116820180604052508101906106d89190612405565b90508b73ffffffffffffffffffffffffffffffffffffffff163373ffffffffffffffffffffffffffffffffffffffff167fd42f803be1969ed3d7fe76e90571304a3e70f2f32b20773cbc303eff548cb05f60405160405180910390a380935050505098975050505050505050565b600060608060606000806000600160009054906101000a900473ffffffffffffffffffffffffffffffffffffffff1673ffffffffffffffffffffffffffffffffffffffff166306ecd6d4896040518263ffffffff1660e01b81526004016107ad9190612aa0565b60006040518083038186803b1580156107c557600080fd5b505afa1580156107d9573d6000803e3d6000fd5b505050506040513d6000823e3d601f19601f8201168201806040525081019061080291906126e4565b809750819850829950839a50849b50859c50869d5050505050505050919395979092949650565b6000876040518060400160405280600881526020017f4558504f52544552000000000000000000000000000000000000000000000000815250806040516020016108739190612a89565b60405160208183030381529060405280519060200120600160009054906101000a900473ffffffffffffffffffffffffffffffffffffffff1673ffffffffffffffffffffffffffffffffffffffff166327820851336040518263ffffffff1660e01b81526004016108e49190612aa0565b60006040518083038186803b1580156108fc57600080fd5b505afa158015610910573d6000803e3d6000fd5b505050506040513d6000823e3d601f19601f82011682018060405250810190610939919061242e565b6040516020016109499190612a89565b604051602081830303815290604052805190602001201461096957600080fd5b8060405160200161097a9190612a89565b60405160208183030381529060405280519060200120600160009054906101000a900473ffffffffffffffffffffffffffffffffffffffff1673ffffffffffffffffffffffffffffffffffffffff16634d6b5e00846040518263ffffffff1660e01b81526004016109eb9190612aa0565b60006040518083038186803b158015610a0357600080fd5b505afa158015610a17573d6000803e3d6000fd5b505050506040513d6000823e3d601f19601f82011682018060405250810190610a40919061242e565b604051602001610a509190612a89565b6040516020818303038152906040528051906020012014610a7057600080fd5b6000600160009054906101000a900473ffffffffffffffffffffffffffffffffffffffff1673ffffffffffffffffffffffffffffffffffffffff1663b51a32168c8c8c8c8c8c8c6040518863ffffffff1660e01b8152600401610ad99796959493929190612bb6565b602060405180830381600087803b158015610af357600080fd5b505af1158015610b07573d6000803e3d6000fd5b505050506040513d601f19601f82011682018060405250810190610b2b9190612405565b90508a73ffffffffffffffffffffffffffffffffffffffff163373ffffffffffffffffffffffffffffffffffffffff167feaba9e3c271bb82a9fd28bf677c9ee9b7a261f8ac7340051834c654f445e7db860405160405180910390a3809350505050979650505050505050565b60008060009054906101000a900473ffffffffffffffffffffffffffffffffffffffff1673ffffffffffffffffffffffffffffffffffffffff163373ffffffffffffffffffffffffffffffffffffffff1614610bf357600080fd5b6000600160009054906101000a900473ffffffffffffffffffffffffffffffffffffffff1673ffffffffffffffffffffffffffffffffffffffff1663cf37467488888888886040518663ffffffff1660e01b8152600401610c58959493929190612d5d565b602060405180830381600087803b158015610c7257600080fd5b505af1158015610c86573d6000803e3d6000fd5b505050506040513d601f19601f82011682018060405250810190610caa919061200f565b90508073ffffffffffffffffffffffffffffffffffffffff163373ffffffffffffffffffffffffffffffffffffffff167ffb0cd0976d848f2ad8c4a6963c1295c96186b2f3919c8204b4fcb350fc36a31f60405160405180910390a38091505095945050505050565b6060600160009054906101000a900473ffffffffffffffffffffffffffffffffffffffff1673ffffffffffffffffffffffffffffffffffffffff16634d6b5e00836040518263ffffffff1660e01b8152600401610d709190612aa0565b60006040518083038186803b158015610d8857600080fd5b505afa158015610d9c573d6000803e3d6000fd5b505050506040513d6000823e3d601f19601f82011682018060405250810190610dc5919061242e565b9050919050565b60008054906101000a900473ffffffffffffffffffffffffffffffffffffffff1673ffffffffffffffffffffffffffffffffffffffff163373ffffffffffffffffffffffffffffffffffffffff1614610e2457600080fd5b60008054906101000a900473ffffffffffffffffffffffffffffffffffffffff1673ffffffffffffffffffffffffffffffffffffffff167ff8df31144d9c2f0f6b59d69b8b98abd5459d07f2742c4df920b25aae33c6482060405160405180910390a260008060006101000a81548173ffffffffffffffffffffffffffffffffffffffff021916908373ffffffffffffffffffffffffffffffffffffffff160217905550565b6060806060600160009054906101000a900473ffffffffffffffffffffffffffffffffffffffff1673ffffffffffffffffffffffffffffffffffffffff16637f89e94b856040518263ffffffff1660e01b8152600401610f2a9190612aa0565b60006040518083038186803b158015610f4257600080fd5b505afa158015610f56573d6000803e3d6000fd5b505050506040513d6000823e3d601f19601f82011682018060405250810190610f7f919061246f565b8093508194508295505050509193909250565b6000846040518060400160405280600f81526020017f4641524d5f494e5350454354494f4e000000000000000000000000000000000081525080604051602001610fdc9190612a89565b60405160208183030381529060405280519060200120600160009054906101000a900473ffffffffffffffffffffffffffffffffffffffff1673ffffffffffffffffffffffffffffffffffffffff166327820851336040518263ffffffff1660e01b815260040161104d9190612aa0565b60006040518083038186803b15801561106557600080fd5b505afa158015611079573d6000803e3d6000fd5b505050506040513d6000823e3d601f19601f820116820180604052508101906110a2919061242e565b6040516020016110b29190612a89565b60405160208183030381529060405280519060200120146110d257600080fd5b806040516020016110e39190612a89565b60405160208183030381529060405280519060200120600160009054906101000a900473ffffffffffffffffffffffffffffffffffffffff1673ffffffffffffffffffffffffffffffffffffffff16634d6b5e00846040518263ffffffff1660e01b81526004016111549190612aa0565b60006040518083038186803b15801561116c57600080fd5b505afa158015611180573d6000803e3d6000fd5b505050506040513d6000823e3d601f19601f820116820180604052508101906111a9919061242e565b6040516020016111b99190612a89565b60405160208183030381529060405280519060200120146111d957600080fd5b6000600160009054906101000a900473ffffffffffffffffffffffffffffffffffffffff1673ffffffffffffffffffffffffffffffffffffffff16631dbcddf4898989896040518563ffffffff1660e01b815260040161123c9493929190612abb565b602060405180830381600087803b15801561125657600080fd5b505af115801561126a573d6000803e3d6000fd5b505050506040513d601f19601f8201168201806040525081019061128e9190612405565b90508773ffffffffffffffffffffffffffffffffffffffff163373ffffffffffffffffffffffffffffffffffffffff167ff38048a8487a9352f87561aa442e92de7d09d55718b8bfc9b16720ea061c35c760405160405180910390a3809350505050949350505050565b6000886040518060400160405280600981526020017f50524f434553534f520000000000000000000000000000000000000000000000815250806040516020016113429190612a89565b60405160208183030381529060405280519060200120600160009054906101000a900473ffffffffffffffffffffffffffffffffffffffff1673ffffffffffffffffffffffffffffffffffffffff166327820851336040518263ffffffff1660e01b81526004016113b39190612aa0565b60006040518083038186803b1580156113cb57600080fd5b505afa1580156113df573d6000803e3d6000fd5b505050506040513d6000823e3d601f19601f82011682018060405250810190611408919061242e565b6040516020016114189190612a89565b604051602081830303815290604052805190602001201461143857600080fd5b806040516020016114499190612a89565b60405160208183030381529060405280519060200120600160009054906101000a900473ffffffffffffffffffffffffffffffffffffffff1673ffffffffffffffffffffffffffffffffffffffff16634d6b5e00846040518263ffffffff1660e01b81526004016114ba9190612aa0565b60006040518083038186803b1580156114d257600080fd5b505afa1580156114e6573d6000803e3d6000fd5b505050506040513d6000823e3d601f19601f8201168201806040525081019061150f919061242e565b60405160200161151f9190612a89565b604051602081830303815290604052805190602001201461153f57600080fd5b6000600160009054906101000a900473ffffffffffffffffffffffffffffffffffffffff1673ffffffffffffffffffffffffffffffffffffffff166353a7571f8d8d8d8d8d8d8d8d6040518963ffffffff1660e01b81526004016115aa989796959493929190612c3a565b602060405180830381600087803b1580156115c457600080fd5b505af11580156115d8573d6000803e3d6000fd5b505050506040513d601f19601f820116820180604052508101906115fc9190612405565b90508b73ffffffffffffffffffffffffffffffffffffffff163373ffffffffffffffffffffffffffffffffffffffff167fe10398ac963823ae3dc8fc855773d4c9c3d53c5aca656e360a2a5c2ae659f26160405160405180910390a380935050505098975050505050505050565b60008054906101000a900473ffffffffffffffffffffffffffffffffffffffff1681565b60006060600060606000606080600160009054906101000a900473ffffffffffffffffffffffffffffffffffffffff1673ffffffffffffffffffffffffffffffffffffffff1663b6959d73896040518263ffffffff1660e01b81526004016116f69190612aa0565b60006040518083038186803b15801561170e57600080fd5b505afa158015611722573d6000803e3d6000fd5b505050506040513d6000823e3d601f19601f8201168201806040525081019061174b91906128f4565b809750819850829950839a50849b50859c50869d5050505050505050919395979092949650565b6060806060600160009054906101000a900473ffffffffffffffffffffffffffffffffffffffff1673ffffffffffffffffffffffffffffffffffffffff1663ca5322e5856040518263ffffffff1660e01b81526004016117d29190612aa0565b60006040518083038186803b1580156117ea57600080fd5b505afa1580156117fe573d6000803e3d6000fd5b505050506040513d6000823e3d601f19601f82011682018060405250810190611827919061246f565b8093508194508295505050509193909250565b6000846040518060400160405280600981526020017f4841525645535445520000000000000000000000000000000000000000000000815250806040516020016118849190612a89565b60405160208183030381529060405280519060200120600160009054906101000a900473ffffffffffffffffffffffffffffffffffffffff1673ffffffffffffffffffffffffffffffffffffffff166327820851336040518263ffffffff1660e01b81526004016118f59190612aa0565b60006040518083038186803b15801561190d57600080fd5b505afa158015611921573d6000803e3d6000fd5b505050506040513d6000823e3d601f19601f8201168201806040525081019061194a919061242e565b60405160200161195a9190612a89565b604051602081830303815290604052805190602001201461197a57600080fd5b8060405160200161198b9190612a89565b60405160208183030381529060405280519060200120600160009054906101000a900473ffffffffffffffffffffffffffffffffffffffff1673ffffffffffffffffffffffffffffffffffffffff16634d6b5e00846040518263ffffffff1660e01b81526004016119fc9190612aa0565b60006040518083038186803b158015611a1457600080fd5b505afa158015611a28573d6000803e3d6000fd5b505050506040513d6000823e3d601f19601f82011682018060405250810190611a51919061242e565b604051602001611a619190612a89565b6040516020818303038152906040528051906020012014611a8157600080fd5b6000600160009054906101000a900473ffffffffffffffffffffffffffffffffffffffff1673ffffffffffffffffffffffffffffffffffffffff16630ab36749898989896040518563ffffffff1660e01b8152600401611ae49493929190612abb565b602060405180830381600087803b158015611afe57600080fd5b505af1158015611b12573d6000803e3d6000fd5b505050506040513d601f19601f82011682018060405250810190611b369190612405565b90508773ffffffffffffffffffffffffffffffffffffffff163373ffffffffffffffffffffffffffffffffffffffff167fbb868668319b351e6f49e0d6ed1618eda15ffe73f6f6f371e419b8d3963a6be560405160405180910390a3809350505050949350505050565b6060806060806060600160009054906101000a900473ffffffffffffffffffffffffffffffffffffffff1673ffffffffffffffffffffffffffffffffffffffff1663f2997d76876040518263ffffffff1660e01b8152600401611c039190612aa0565b60006040518083038186803b158015611c1b57600080fd5b505afa158015611c2f573d6000803e3d6000fd5b505050506040513d6000823e3d601f19601f82011682018060405250810190611c5891906125f5565b809550819650829750839850849950505050505091939590929450565b60008054906101000a900473ffffffffffffffffffffffffffffffffffffffff1673ffffffffffffffffffffffffffffffffffffffff163373ffffffffffffffffffffffffffffffffffffffff1614611ccd57600080fd5b600073ffffffffffffffffffffffffffffffffffffffff168173ffffffffffffffffffffffffffffffffffffffff161415611d0757600080fd5b8073ffffffffffffffffffffffffffffffffffffffff1660008054906101000a900473ffffffffffffffffffffffffffffffffffffffff1673ffffffffffffffffffffffffffffffffffffffff167f8be0079c531659141344cd1fd0a4f28419497f9722a3daafe3b4186f6b6457e060405160405180910390a3806000806101000a81548173ffffffffffffffffffffffffffffffffffffffff021916908373ffffffffffffffffffffffffffffffffffffffff16021790555050565b6000606080600060608060606000600160009054906101000a900473ffffffffffffffffffffffffffffffffffffffff1673ffffffffffffffffffffffffffffffffffffffff1663febd04928a6040518263ffffffff1660e01b8152600401611e2d9190612aa0565b60006040518083038186803b158015611e4557600080fd5b505afa158015611e59573d6000803e3d6000fd5b505050506040513d6000823e3d601f19601f82011682018060405250810190611e8291906127ca565b809850819950829a50839b50849c50859d50869e50879f505050505050505050919395975091939597565b6000611ec0611ebb84612fb4565b612f83565b905082815260208101848484011115611ed857600080fd5b611ee3848285613053565b509392505050565b6000611efe611ef984612fb4565b612f83565b905082815260208101848484011115611f1657600080fd5b611f21848285613062565b509392505050565b600081359050611f38816130d5565b92915050565b600081519050611f4d816130d5565b92915050565b600081519050611f62816130ec565b92915050565b600082601f830112611f7957600080fd5b8135611f89848260208601611ead565b91505092915050565b600082601f830112611fa357600080fd5b8151611fb3848260208601611eeb565b91505092915050565b600081359050611fcb81613103565b92915050565b600081519050611fe081613103565b92915050565b600060208284031215611ff857600080fd5b600061200684828501611f29565b91505092915050565b60006020828403121561202157600080fd5b600061202f84828501611f3e565b91505092915050565b6000806000806080858703121561204e57600080fd5b600061205c87828801611f29565b945050602085013567ffffffffffffffff81111561207957600080fd5b61208587828801611f68565b935050604085013567ffffffffffffffff8111156120a257600080fd5b6120ae87828801611f68565b925050606085013567ffffffffffffffff8111156120cb57600080fd5b6120d787828801611f68565b91505092959194509250565b600080600080600080600080610100898b03121561210057600080fd5b600061210e8b828c01611f29565b985050602061211f8b828c01611fbc565b975050604089013567ffffffffffffffff81111561213c57600080fd5b6121488b828c01611f68565b965050606089013567ffffffffffffffff81111561216557600080fd5b6121718b828c01611f68565b955050608089013567ffffffffffffffff81111561218e57600080fd5b61219a8b828c01611f68565b94505060a089013567ffffffffffffffff8111156121b757600080fd5b6121c38b828c01611f68565b93505060c089013567ffffffffffffffff8111156121e057600080fd5b6121ec8b828c01611f68565b92505060e06121fd8b828c01611fbc565b9150509295985092959890939650565b600080600080600080600060e0888a03121561222857600080fd5b60006122368a828b01611f29565b97505060206122478a828b01611fbc565b965050604088013567ffffffffffffffff81111561226457600080fd5b6122708a828b01611f68565b955050606088013567ffffffffffffffff81111561228d57600080fd5b6122998a828b01611f68565b945050608088013567ffffffffffffffff8111156122b657600080fd5b6122c28a828b01611f68565b93505060a06122d38a828b01611fbc565b92505060c06122e48a828b01611fbc565b91505092959891949750929550565b600080600080600080600080610100898b03121561231057600080fd5b600061231e8b828c01611f29565b985050602061232f8b828c01611fbc565b975050604089013567ffffffffffffffff81111561234c57600080fd5b6123588b828c01611f68565b96505060606123698b828c01611fbc565b955050608089013567ffffffffffffffff81111561238657600080fd5b6123928b828c01611f68565b94505060a06123a38b828c01611fbc565b93505060c089013567ffffffffffffffff8111156123c057600080fd5b6123cc8b828c01611f68565b92505060e089013567ffffffffffffffff8111156123e957600080fd5b6123f58b828c01611f68565b9150509295985092959890939650565b60006020828403121561241757600080fd5b600061242584828501611f53565b91505092915050565b60006020828403121561244057600080fd5b600082015167ffffffffffffffff81111561245a57600080fd5b61246684828501611f92565b91505092915050565b60008060006060848603121561248457600080fd5b600084015167ffffffffffffffff81111561249e57600080fd5b6124aa86828701611f92565b935050602084015167ffffffffffffffff8111156124c757600080fd5b6124d386828701611f92565b925050604084015167ffffffffffffffff8111156124f057600080fd5b6124fc86828701611f92565b9150509250925092565b600080600080600060a0868803121561251e57600080fd5b600086013567ffffffffffffffff81111561253857600080fd5b61254488828901611f68565b955050602086013567ffffffffffffffff81111561256157600080fd5b61256d88828901611f68565b945050604086013567ffffffffffffffff81111561258a57600080fd5b61259688828901611f68565b935050606086013567ffffffffffffffff8111156125b357600080fd5b6125bf88828901611f68565b925050608086013567ffffffffffffffff8111156125dc57600080fd5b6125e888828901611f68565b9150509295509295909350565b600080600080600060a0868803121561260d57600080fd5b600086015167ffffffffffffffff81111561262757600080fd5b61263388828901611f92565b955050602086015167ffffffffffffffff81111561265057600080fd5b61265c88828901611f92565b945050604086015167ffffffffffffffff81111561267957600080fd5b61268588828901611f92565b935050606086015167ffffffffffffffff8111156126a257600080fd5b6126ae88828901611f92565b925050608086015167ffffffffffffffff8111156126cb57600080fd5b6126d788828901611f92565b9150509295509295909350565b600080600080600080600060e0888a0312156126ff57600080fd5b600061270d8a828b01611fd1565b975050602088015167ffffffffffffffff81111561272a57600080fd5b6127368a828b01611f92565b965050604088015167ffffffffffffffff81111561275357600080fd5b61275f8a828b01611f92565b955050606088015167ffffffffffffffff81111561277c57600080fd5b6127888a828b01611f92565b94505060806127998a828b01611fd1565b93505060a06127aa8a828b01611fd1565b92505060c06127bb8a828b01611fd1565b91505092959891949750929550565b600080600080600080600080610100898b0312156127e757600080fd5b60006127f58b828c01611fd1565b985050602089015167ffffffffffffffff81111561281257600080fd5b61281e8b828c01611f92565b975050604089015167ffffffffffffffff81111561283b57600080fd5b6128478b828c01611f92565b96505060606128588b828c01611fd1565b955050608089015167ffffffffffffffff81111561287557600080fd5b6128818b828c01611f92565b94505060a089015167ffffffffffffffff81111561289e57600080fd5b6128aa8b828c01611f92565b93505060c089015167ffffffffffffffff8111156128c757600080fd5b6128d38b828c01611f92565b92505060e06128e48b828c01611fd1565b9150509295985092959890939650565b600080600080600080600060e0888a03121561290f57600080fd5b600061291d8a828b01611fd1565b975050602088015167ffffffffffffffff81111561293a57600080fd5b6129468a828b01611f92565b96505060406129578a828b01611fd1565b955050606088015167ffffffffffffffff81111561297457600080fd5b6129808a828b01611f92565b94505060806129918a828b01611fd1565b93505060a088015167ffffffffffffffff8111156129ae57600080fd5b6129ba8a828b01611f92565b92505060c088015167ffffffffffffffff8111156129d757600080fd5b6129e38a828b01611f92565b91505092959891949750929550565b6129fb8161300b565b82525050565b612a0a8161301d565b82525050565b6000612a1b82612fe4565b612a258185612fef565b9350612a35818560208601613062565b612a3e816130c4565b840191505092915050565b6000612a5482612fe4565b612a5e8185613000565b9350612a6e818560208601613062565b80840191505092915050565b612a8381613049565b82525050565b6000612a958284612a49565b915081905092915050565b6000602082019050612ab560008301846129f2565b92915050565b6000608082019050612ad060008301876129f2565b8181036020830152612ae28186612a10565b90508181036040830152612af68185612a10565b90508181036060830152612b0a8184612a10565b905095945050505050565b600061010082019050612b2b600083018b6129f2565b612b38602083018a612a7a565b8181036040830152612b4a8189612a10565b90508181036060830152612b5e8188612a10565b90508181036080830152612b728187612a10565b905081810360a0830152612b868186612a10565b905081810360c0830152612b9a8185612a10565b9050612ba960e0830184612a7a565b9998505050505050505050565b600060e082019050612bcb600083018a6129f2565b612bd86020830189612a7a565b8181036040830152612bea8188612a10565b90508181036060830152612bfe8187612a10565b90508181036080830152612c128186612a10565b9050612c2160a0830185612a7a565b612c2e60c0830184612a7a565b98975050505050505050565b600061010082019050612c50600083018b6129f2565b612c5d602083018a612a7a565b8181036040830152612c6f8189612a10565b9050612c7e6060830188612a7a565b8181036080830152612c908187612a10565b9050612c9f60a0830186612a7a565b81810360c0830152612cb18185612a10565b905081810360e0830152612cc58184612a10565b90509998505050505050505050565b6000602082019050612ce96000830184612a01565b92915050565b60006020820190508181036000830152612d098184612a10565b905092915050565b60006060820190508181036000830152612d2b8186612a10565b90508181036020830152612d3f8185612a10565b90508181036040830152612d538184612a10565b9050949350505050565b600060a0820190508181036000830152612d778188612a10565b90508181036020830152612d8b8187612a10565b90508181036040830152612d9f8186612a10565b90508181036060830152612db38185612a10565b90508181036080830152612dc78184612a10565b90509695505050505050565b600060e082019050612de8600083018a612a7a565b8181036020830152612dfa8189612a10565b90508181036040830152612e0e8188612a10565b90508181036060830152612e228187612a10565b9050612e316080830186612a7a565b612e3e60a0830185612a7a565b612e4b60c0830184612a7a565b98975050505050505050565b600061010082019050612e6d600083018b612a7a565b8181036020830152612e7f818a612a10565b90508181036040830152612e938189612a10565b9050612ea26060830188612a7a565b8181036080830152612eb48187612a10565b905081810360a0830152612ec88186612a10565b905081810360c0830152612edc8185612a10565b9050612eeb60e0830184612a7a565b9998505050505050505050565b600060e082019050612f0d600083018a612a7a565b8181036020830152612f1f8189612a10565b9050612f2e6040830188612a7a565b8181036060830152612f408187612a10565b9050612f4f6080830186612a7a565b81810360a0830152612f618185612a10565b905081810360c0830152612f758184612a10565b905098975050505050505050565b6000604051905081810181811067ffffffffffffffff82111715612faa57612fa9613095565b5b8060405250919050565b600067ffffffffffffffff821115612fcf57612fce613095565b5b601f19601f8301169050602081019050919050565b600081519050919050565b600082825260208201905092915050565b600081905092915050565b600061301682613029565b9050919050565b60008115159050919050565b600073ffffffffffffffffffffffffffffffffffffffff82169050919050565b6000819050919050565b82818337600083830152505050565b60005b83811015613080578082015181840152602081019050613065565b8381111561308f576000848401525b50505050565b7f4e487b7100000000000000000000000000000000000000000000000000000000600052604160045260246000fd5b6000601f19601f8301169050919050565b6130de8161300b565b81146130e957600080fd5b50565b6130f58161301d565b811461310057600080fd5b50565b61310c81613049565b811461311757600080fd5b5056fea2646970667358221220435e10ce3fcce880de31bf89acda8dacac6f3343f300484a6da1c647294518f264736f6c63430008000033",
  "immutableReferences": {},
  "source": "// SPDX-License-Identifier: MIT\npragma solidity ^0.8.0;\nimport \"./SupplyChainStorage.sol\";\nimport \"./Ownable.sol\";\n\ncontract CoffeeSupplyChain is Ownable\n{\n  \n    event PerformCultivation(address indexed user, address indexed batchNo);\n    event DoneInspection(address indexed user, address indexed batchNo);\n    event DoneHarvesting(address indexed user, address indexed batchNo);\n    event DoneExporting(address indexed user, address indexed batchNo);\n    event DoneImporting(address indexed user, address indexed batchNo);\n    event DoneProcessing(address indexed user, address indexed batchNo);\n\n    \n    /*Modifier*/\n    modifier isValidPerformer(address batchNo, string memory role) {\n    \n        require(keccak256(abi.encodePacked(supplyChainStorage.getUserRole(msg.sender))) == keccak256(abi.encodePacked(role)));\n        require(keccak256(abi.encodePacked(supplyChainStorage.getNextAction(batchNo))) == keccak256(abi.encodePacked(role)));\n        _;\n    }\n    \n    /* Storage Variables */    \n    SupplyChainStorage supplyChainStorage;\n    \n    constructor(address _supplyChainAddress) public {\n        supplyChainStorage = SupplyChainStorage(_supplyChainAddress);\n    }\n    \n    \n    /* Get Next Action  */    \n    function getNextAction(address _batchNo) public view returns(string memory action)\n    {\n       (action) = supplyChainStorage.getNextAction(_batchNo);\n       return (action);\n    }\n    \n\n    /* get Basic Details */\n    function getBasicDetails(address _batchNo) public view returns (\n        string memory registrationNo,\n        string memory farmerName,\n        string memory farmAddress,\n        string memory exporterName,\n        string memory importerName\n    ) {\n        /* Call Storage Contract */\n        (registrationNo, farmerName, farmAddress, exporterName, importerName) = supplyChainStorage.getBasicDetails(_batchNo);  \n        return (registrationNo, farmerName, farmAddress, exporterName, importerName);\n    }\n\n    /* perform Basic Cultivation */\n    function addBasicDetails(\n        string memory _registrationNo,\n        string memory _farmerName,\n        string memory _farmAddress,\n        string memory _exporterName,\n        string memory _importerName\n    ) public onlyOwner returns(address) {\n    \n        address batchNo = supplyChainStorage.setBasicDetails(\n            _registrationNo,\n            _farmerName,\n            _farmAddress,\n            _exporterName,\n            _importerName);\n        \n        emit PerformCultivation(msg.sender, batchNo); \n        \n        return (batchNo);\n    }                            \n    \n    /* get Farm Inspection */\n    function getFarmInspectorData(address _batchNo) public view returns (string memory coffeeFamily,string memory typeOfSeed,string memory fertilizerUsed) {\n        /* Call Storage Contract */\n        (coffeeFamily, typeOfSeed, fertilizerUsed) = supplyChainStorage.getFarmInspectorData(_batchNo);  \n        return (coffeeFamily, typeOfSeed, fertilizerUsed);\n    }\n    \n    /* perform Farm Inspection */\n    function updateFarmInspectorData(\n        address _batchNo,\n        string memory _coffeeFamily,\n        string memory _typeOfSeed,\n        string memory _fertilizerUsed\n    ) public isValidPerformer(_batchNo,'FARM_INSPECTION') returns(bool) {\n        /* Call Storage Contract */\n        bool status = supplyChainStorage.setFarmInspectorData(_batchNo, _coffeeFamily, _typeOfSeed, _fertilizerUsed);  \n        \n        emit DoneInspection(msg.sender, _batchNo);\n        return (status);\n    }\n\n    \n    /* get Harvest */\n    function getHarvesterData(address _batchNo) public view returns (string memory cropVariety, string memory temperatureUsed, string memory humidity) {\n        /* Call Storage Contract */\n        (cropVariety, temperatureUsed, humidity) =  supplyChainStorage.getHarvesterData(_batchNo);  \n        return (cropVariety, temperatureUsed, humidity);\n    }\n    \n    /* perform Harvest */\n    function updateHarvesterData(\n        address _batchNo,\n        string memory _cropVariety,\n        string memory _temperatureUsed,\n        string memory _humidity\n    ) public isValidPerformer(_batchNo,'HARVESTER') returns(bool) {\n                                    \n        /* Call Storage Contract */\n        bool status = supplyChainStorage.setHarvesterData(_batchNo, _cropVariety, _temperatureUsed, _humidity);  \n        \n        emit DoneHarvesting(msg.sender, _batchNo);\n        return (status);\n    }\n    \n    /* get Export */\n    function getExporterData(address _batchNo) public view returns (\n        uint256 quantity,\n        string memory destinationAddress,\n        string memory shipName,\n        string memory shipNo,\n        uint256 departureDateTime,\n        uint256 estimateDateTime,\n        uint256 exporterId\n    ) {\n        /* Call Storage Contract */\n       (quantity,\n        destinationAddress,\n        shipName,\n        shipNo,\n        departureDateTime,\n        estimateDateTime,\n        exporterId) =  supplyChainStorage.getExporterData(_batchNo);  \n        \n        return (quantity,\n                destinationAddress,\n                shipName,\n                shipNo,\n                departureDateTime,\n                estimateDateTime,\n                exporterId);\n    }\n    \n    /* perform Export */\n    function updateExporterData(\n        address _batchNo,\n        uint256 _quantity,    \n        string memory _destinationAddress,\n        string memory _shipName,\n        string memory _shipNo,\n        uint256 _estimateDateTime,\n        uint256 _exporterId\n    ) public isValidPerformer(_batchNo,'EXPORTER') returns(bool) {\n                                    \n        /* Call Storage Contract */\n        bool status = supplyChainStorage.setExporterData(_batchNo, _quantity, _destinationAddress, _shipName,_shipNo, _estimateDateTime,_exporterId);  \n        \n        emit DoneExporting(msg.sender, _batchNo);\n        return (status);\n    }\n    \n    /* get Import */\n    function getImporterData(address _batchNo) public view returns (\n        uint256 quantity,\n        string memory shipName,\n        string memory shipNo,\n        uint256 arrivalDateTime,\n        string memory transportInfo,\n        string memory warehouseName,\n        string memory warehouseAddress,\n        uint256 importerId\n    ) {\n        /* Call Storage Contract */\n        (quantity,\n         shipName,\n         shipNo,\n         arrivalDateTime,\n         transportInfo,\n         warehouseName,\n         warehouseAddress,\n         importerId) =  supplyChainStorage.getImporterData(_batchNo);  \n         \n         return (quantity,\n                 shipName,\n                 shipNo,\n                 arrivalDateTime,\n                 transportInfo,\n                 warehouseName,\n                 warehouseAddress,\n                 importerId);\n        \n    }\n    \n    /* perform Import */\n    function updateImporterData(\n        address _batchNo,\n        uint256 _quantity, \n        string memory _shipName,\n        string memory _shipNo,\n        string memory _transportInfo,\n        string memory _warehouseName,\n        string memory _warehouseAddress,\n        uint256 _importerId\n    ) public isValidPerformer(_batchNo,'IMPORTER') returns(bool) {\n                                    \n        /* Call Storage Contract */\n        bool status = supplyChainStorage.setImporterData(_batchNo, _quantity, _shipName, _shipNo, _transportInfo,_warehouseName,_warehouseAddress,_importerId);  \n        \n        emit DoneImporting(msg.sender, _batchNo);\n        return (status);\n    }\n    \n    \n    /* get Processor */\n    \n    function getProcessorData(address _batchNo) public view returns (\n        uint256 quantity,\n        string memory temperature,\n        uint256 rostingDuration,\n        string memory internalBatchNo,\n        uint256 packageDateTime,\n        string memory processorName,\n        string memory processorAddress\n    ) {\n        /* Call Storage Contract */\n        (quantity,\n         temperature,\n         rostingDuration,\n         internalBatchNo,\n         packageDateTime,\n         processorName,\n         processorAddress) =  supplyChainStorage.getProcessorData(_batchNo);  \n         \n        return (quantity,\n                temperature,\n                rostingDuration,\n                internalBatchNo,\n                packageDateTime,\n                processorName,\n                processorAddress);\n \n    }\n    \n    /* perform Processing */\n    function updateProcessorData(address _batchNo,\n        uint256 _quantity, \n        string memory _temperature,\n        uint256 _rostingDuration,\n        string memory _internalBatchNo,\n        uint256 _packageDateTime,\n        string memory _processorName,\n        string memory _processorAddress\n    ) public isValidPerformer(_batchNo,'PROCESSOR') returns(bool) {\n                                    \n        /* Call Storage Contract */\n        bool status = supplyChainStorage.setProcessorData(\n            _batchNo, \n            _quantity, \n            _temperature, \n            _rostingDuration, \n            _internalBatchNo,\n            _packageDateTime,\n            _processorName,\n            _processorAddress\n        );  \n        \n        emit DoneProcessing(msg.sender, _batchNo);\n        return (status);\n    }\n}\n",
  "sourcePath": "/home/abel/coffee-supplychain-ethereum/contracts/CoffeeSupplyChain.sol",
  "compiler": {
    "name": "solc",
    "version": "0.8.0+commit.c7dfd78e.Emscripten.clang"
  },
  "schemaVersion": "3.4.3",
  "updatedAt": "2021-11-14T17:06:49.323Z",
  "networkType": "ethereum",
  "devdoc": {
    "kind": "dev",
    "methods": {
      "renounceOwnership()": {
        "details": "Allows the current owner to relinquish control of the contract."
      },
      "transferOwnership(address)": {
        "details": "Allows the current owner to transfer control of the contract to a newOwner.",
        "params": {
          "newOwner": "The address to transfer ownership to."
        }
      }
    },
    "version": 1
  },
  "userdoc": {
    "kind": "user",
    "methods": {},
    "version": 1
  }
}