{
  "contractName": "SupplyChainStorage",
  "abi": [
    {
      "inputs": [],
      "stateMutability": "nonpayable",
      "type": "constructor"
    },
    {
      "anonymous": false,
      "inputs": [
        {
          "indexed": false,
          "internalType": "address",
          "name": "caller",
          "type": "address"
        }
      ],
      "name": "AuthorizedCaller",
      "type": "event"
    },
    {
      "anonymous": false,
      "inputs": [
        {
          "indexed": false,
          "internalType": "address",
          "name": "caller",
          "type": "address"
        }
      ],
      "name": "DeAuthorizedCaller",
      "type": "event"
    },
    {
      "anonymous": false,
      "inputs": [
        {
          "indexed": true,
          "internalType": "address",
          "name": "previousOwner",
          "type": "address"
        }
      ],
      "name": "OwnershipRenounced",
      "type": "event"
    },
    {
      "anonymous": false,
      "inputs": [
        {
          "indexed": true,
          "internalType": "address",
          "name": "previousOwner",
          "type": "address"
        },
        {
          "indexed": true,
          "internalType": "address",
          "name": "newOwner",
          "type": "address"
        }
      ],
      "name": "OwnershipTransferred",
      "type": "event"
    },
    {
      "anonymous": false,
      "inputs": [
        {
          "indexed": false,
          "internalType": "address",
          "name": "caller",
          "type": "address"
        }
      ],
      "name": "UserRoleUpdate",
      "type": "event"
    },
    {
      "anonymous": false,
      "inputs": [
        {
          "indexed": false,
          "internalType": "address",
          "name": "caller",
          "type": "address"
        }
      ],
      "name": "UserUpdate",
      "type": "event"
    },
    {
      "inputs": [],
      "name": "owner",
      "outputs": [
        {
          "internalType": "address",
          "name": "",
          "type": "address"
        }
      ],
      "stateMutability": "view",
      "type": "function",
      "constant": true
    },
    {
      "inputs": [],
      "name": "renounceOwnership",
      "outputs": [],
      "stateMutability": "nonpayable",
      "type": "function"
    },
    {
      "inputs": [
        {
          "internalType": "address",
          "name": "newOwner",
          "type": "address"
        }
      ],
      "name": "transferOwnership",
      "outputs": [],
      "stateMutability": "nonpayable",
      "type": "function"
    },
    {
      "inputs": [
        {
          "internalType": "address",
          "name": "_caller",
          "type": "address"
        }
      ],
      "name": "authorizeCaller",
      "outputs": [
        {
          "internalType": "bool",
          "name": "",
          "type": "bool"
        }
      ],
      "stateMutability": "nonpayable",
      "type": "function"
    },
    {
      "inputs": [
        {
          "internalType": "address",
          "name": "_caller",
          "type": "address"
        }
      ],
      "name": "deAuthorizeCaller",
      "outputs": [
        {
          "internalType": "bool",
          "name": "",
          "type": "bool"
        }
      ],
      "stateMutability": "nonpayable",
      "type": "function"
    },
    {
      "inputs": [
        {
          "internalType": "address",
          "name": "_userAddress",
          "type": "address"
        }
      ],
      "name": "getUserRole",
      "outputs": [
        {
          "internalType": "string",
          "name": "",
          "type": "string"
        }
      ],
      "stateMutability": "view",
      "type": "function",
      "constant": true
    },
    {
      "inputs": [
        {
          "internalType": "address",
          "name": "_batchNo",
          "type": "address"
        }
      ],
      "name": "getNextAction",
      "outputs": [
        {
          "internalType": "string",
          "name": "",
          "type": "string"
        }
      ],
      "stateMutability": "view",
      "type": "function",
      "constant": true
    },
    {
      "inputs": [
        {
          "internalType": "address",
          "name": "_userAddress",
          "type": "address"
        },
        {
          "internalType": "string",
          "name": "_name",
          "type": "string"
        },
        {
          "internalType": "string",
          "name": "_contactNo",
          "type": "string"
        },
        {
          "internalType": "string",
          "name": "_role",
          "type": "string"
        },
        {
          "internalType": "bool",
          "name": "_isActive",
          "type": "bool"
        },
        {
          "internalType": "string",
          "name": "_profileHash",
          "type": "string"
        }
      ],
      "name": "setUser",
      "outputs": [
        {
          "internalType": "bool",
          "name": "",
          "type": "bool"
        }
      ],
      "stateMutability": "nonpayable",
      "type": "function"
    },
    {
      "inputs": [
        {
          "internalType": "address",
          "name": "_userAddress",
          "type": "address"
        }
      ],
      "name": "getUser",
      "outputs": [
        {
          "internalType": "string",
          "name": "name",
          "type": "string"
        },
        {
          "internalType": "string",
          "name": "contactNo",
          "type": "string"
        },
        {
          "internalType": "string",
          "name": "role",
          "type": "string"
        },
        {
          "internalType": "bool",
          "name": "isActive",
          "type": "bool"
        },
        {
          "internalType": "string",
          "name": "profileHash",
          "type": "string"
        }
      ],
      "stateMutability": "view",
      "type": "function",
      "constant": true
    },
    {
      "inputs": [
        {
          "internalType": "address",
          "name": "_batchNo",
          "type": "address"
        }
      ],
      "name": "getBasicDetails",
      "outputs": [
        {
          "internalType": "string",
          "name": "registrationNo",
          "type": "string"
        },
        {
          "internalType": "string",
          "name": "farmerName",
          "type": "string"
        },
        {
          "internalType": "string",
          "name": "farmAddress",
          "type": "string"
        },
        {
          "internalType": "string",
          "name": "exporterName",
          "type": "string"
        },
        {
          "internalType": "string",
          "name": "importerName",
          "type": "string"
        }
      ],
      "stateMutability": "view",
      "type": "function",
      "constant": true
    },
    {
      "inputs": [
        {
          "internalType": "string",
          "name": "_registrationNo",
          "type": "string"
        },
        {
          "internalType": "string",
          "name": "_farmerName",
          "type": "string"
        },
        {
          "internalType": "string",
          "name": "_farmAddress",
          "type": "string"
        },
        {
          "internalType": "string",
          "name": "_exporterName",
          "type": "string"
        },
        {
          "internalType": "string",
          "name": "_importerName",
          "type": "string"
        }
      ],
      "name": "setBasicDetails",
      "outputs": [
        {
          "internalType": "address",
          "name": "",
          "type": "address"
        }
      ],
      "stateMutability": "nonpayable",
      "type": "function"
    },
    {
      "inputs": [
        {
          "internalType": "address",
          "name": "batchNo",
          "type": "address"
        },
        {
          "internalType": "string",
          "name": "_coffeeFamily",
          "type": "string"
        },
        {
          "internalType": "string",
          "name": "_typeOfSeed",
          "type": "string"
        },
        {
          "internalType": "string",
          "name": "_fertilizerUsed",
          "type": "string"
        }
      ],
      "name": "setFarmInspectorData",
      "outputs": [
        {
          "internalType": "bool",
          "name": "",
          "type": "bool"
        }
      ],
      "stateMutability": "nonpayable",
      "type": "function"
    },
    {
      "inputs": [
        {
          "internalType": "address",
          "name": "batchNo",
          "type": "address"
        }
      ],
      "name": "getFarmInspectorData",
      "outputs": [
        {
          "internalType": "string",
          "name": "coffeeFamily",
          "type": "string"
        },
        {
          "internalType": "string",
          "name": "typeOfSeed",
          "type": "string"
        },
        {
          "internalType": "string",
          "name": "fertilizerUsed",
          "type": "string"
        }
      ],
      "stateMutability": "view",
      "type": "function",
      "constant": true
    },
    {
      "inputs": [
        {
          "internalType": "address",
          "name": "batchNo",
          "type": "address"
        },
        {
          "internalType": "string",
          "name": "_cropVariety",
          "type": "string"
        },
        {
          "internalType": "string",
          "name": "_temperatureUsed",
          "type": "string"
        },
        {
          "internalType": "string",
          "name": "_humidity",
          "type": "string"
        }
      ],
      "name": "setHarvesterData",
      "outputs": [
        {
          "internalType": "bool",
          "name": "",
          "type": "bool"
        }
      ],
      "stateMutability": "nonpayable",
      "type": "function"
    },
    {
      "inputs": [
        {
          "internalType": "address",
          "name": "batchNo",
          "type": "address"
        }
      ],
      "name": "getHarvesterData",
      "outputs": [
        {
          "internalType": "string",
          "name": "cropVariety",
          "type": "string"
        },
        {
          "internalType": "string",
          "name": "temperatureUsed",
          "type": "string"
        },
        {
          "internalType": "string",
          "name": "humidity",
          "type": "string"
        }
      ],
      "stateMutability": "view",
      "type": "function",
      "constant": true
    },
    {
      "inputs": [
        {
          "internalType": "address",
          "name": "batchNo",
          "type": "address"
        },
        {
          "internalType": "uint256",
          "name": "_quantity",
          "type": "uint256"
        },
        {
          "internalType": "string",
          "name": "_destinationAddress",
          "type": "string"
        },
        {
          "internalType": "string",
          "name": "_shipName",
          "type": "string"
        },
        {
          "internalType": "string",
          "name": "_shipNo",
          "type": "string"
        },
        {
          "internalType": "uint256",
          "name": "_estimateDateTime",
          "type": "uint256"
        },
        {
          "internalType": "uint256",
          "name": "_exporterId",
          "type": "uint256"
        }
      ],
      "name": "setExporterData",
      "outputs": [
        {
          "internalType": "bool",
          "name": "",
          "type": "bool"
        }
      ],
      "stateMutability": "nonpayable",
      "type": "function"
    },
    {
      "inputs": [
        {
          "internalType": "address",
          "name": "batchNo",
          "type": "address"
        }
      ],
      "name": "getExporterData",
      "outputs": [
        {
          "internalType": "uint256",
          "name": "quantity",
          "type": "uint256"
        },
        {
          "internalType": "string",
          "name": "destinationAddress",
          "type": "string"
        },
        {
          "internalType": "string",
          "name": "shipName",
          "type": "string"
        },
        {
          "internalType": "string",
          "name": "shipNo",
          "type": "string"
        },
        {
          "internalType": "uint256",
          "name": "departureDateTime",
          "type": "uint256"
        },
        {
          "internalType": "uint256",
          "name": "estimateDateTime",
          "type": "uint256"
        },
        {
          "internalType": "uint256",
          "name": "exporterId",
          "type": "uint256"
        }
      ],
      "stateMutability": "view",
      "type": "function",
      "constant": true
    },
    {
      "inputs": [
        {
          "internalType": "address",
          "name": "batchNo",
          "type": "address"
        },
        {
          "internalType": "uint256",
          "name": "_quantity",
          "type": "uint256"
        },
        {
          "internalType": "string",
          "name": "_shipName",
          "type": "string"
        },
        {
          "internalType": "string",
          "name": "_shipNo",
          "type": "string"
        },
        {
          "internalType": "string",
          "name": "_transportInfo",
          "type": "string"
        },
        {
          "internalType": "string",
          "name": "_warehouseName",
          "type": "string"
        },
        {
          "internalType": "string",
          "name": "_warehouseAddress",
          "type": "string"
        },
        {
          "internalType": "uint256",
          "name": "_importerId",
          "type": "uint256"
        }
      ],
      "name": "setImporterData",
      "outputs": [
        {
          "internalType": "bool",
          "name": "",
          "type": "bool"
        }
      ],
      "stateMutability": "nonpayable",
      "type": "function"
    },
    {
      "inputs": [
        {
          "internalType": "address",
          "name": "batchNo",
          "type": "address"
        }
      ],
      "name": "getImporterData",
      "outputs": [
        {
          "internalType": "uint256",
          "name": "quantity",
          "type": "uint256"
        },
        {
          "internalType": "string",
          "name": "shipName",
          "type": "string"
        },
        {
          "internalType": "string",
          "name": "shipNo",
          "type": "string"
        },
        {
          "internalType": "uint256",
          "name": "arrivalDateTime",
          "type": "uint256"
        },
        {
          "internalType": "string",
          "name": "transportInfo",
          "type": "string"
        },
        {
          "internalType": "string",
          "name": "warehouseName",
          "type": "string"
        },
        {
          "internalType": "string",
          "name": "warehouseAddress",
          "type": "string"
        },
        {
          "internalType": "uint256",
          "name": "importerId",
          "type": "uint256"
        }
      ],
      "stateMutability": "view",
      "type": "function",
      "constant": true
    },
    {
      "inputs": [
        {
          "internalType": "address",
          "name": "batchNo",
          "type": "address"
        },
        {
          "internalType": "uint256",
          "name": "_quantity",
          "type": "uint256"
        },
        {
          "internalType": "string",
          "name": "_temperature",
          "type": "string"
        },
        {
          "internalType": "uint256",
          "name": "_rostingDuration",
          "type": "uint256"
        },
        {
          "internalType": "string",
          "name": "_internalBatchNo",
          "type": "string"
        },
        {
          "internalType": "uint256",
          "name": "_packageDateTime",
          "type": "uint256"
        },
        {
          "internalType": "string",
          "name": "_processorName",
          "type": "string"
        },
        {
          "internalType": "string",
          "name": "_processorAddress",
          "type": "string"
        }
      ],
      "name": "setProcessorData",
      "outputs": [
        {
          "internalType": "bool",
          "name": "",
          "type": "bool"
        }
      ],
      "stateMutability": "nonpayable",
      "type": "function"
    },
    {
      "inputs": [
        {
          "internalType": "address",
          "name": "batchNo",
          "type": "address"
        }
      ],
      "name": "getProcessorData",
      "outputs": [
        {
          "internalType": "uint256",
          "name": "quantity",
          "type": "uint256"
        },
        {
          "internalType": "string",
          "name": "temperature",
          "type": "string"
        },
        {
          "internalType": "uint256",
          "name": "rostingDuration",
          "type": "uint256"
        },
        {
          "internalType": "string",
          "name": "internalBatchNo",
          "type": "string"
        },
        {
          "internalType": "uint256",
          "name": "packageDateTime",
          "type": "uint256"
        },
        {
          "internalType": "string",
          "name": "processorName",
          "type": "string"
        },
        {
          "internalType": "string",
          "name": "processorAddress",
          "type": "string"
        }
      ],
      "stateMutability": "view",
      "type": "function",
      "constant": true
    }
  ],
  "bytecode": "0x60806040523480156200001157600080fd5b50336000806101000a81548173ffffffffffffffffffffffffffffffffffffffff021916908373ffffffffffffffffffffffffffffffffffffffff1602179055506001600360003373ffffffffffffffffffffffffffffffffffffffff1673ffffffffffffffffffffffffffffffffffffffff16815260200190815260200160002060006101000a81548160ff021916908360ff1602179055507f8afeca650897be3183b7c0d24eba96a1b990f75c4bd74a0cfb2c0a71aec48e6133604051620000dc9190620000fb565b60405180910390a16200014c565b620000f58162000118565b82525050565b6000602082019050620001126000830184620000ea565b92915050565b600062000125826200012c565b9050919050565b600073ffffffffffffffffffffffffffffffffffffffff82169050919050565b61400b806200015c6000396000f3fe608060405234801561001057600080fd5b50600436106101375760003560e01c8063715018a6116100b8578063ca5322e51161007c578063ca5322e5146103e6578063cf37467414610418578063f2997d7614610448578063f2fde38b1461047c578063fb7a20af14610498578063febd0492146104c857610137565b8063715018a6146103265780637f89e94b146103305780638da5cb5b14610362578063b51a321614610380578063b6959d73146103b057610137565b80632c388d5d116100ff5780632c388d5d146102325780634d6b5e001461026257806353a7571f146102925780636115eec2146102c25780636f77926b146102f257610137565b806306ecd6d41461013c5780630ab36749146101725780631bcd250a146101a25780631dbcddf4146101d25780632782085114610202575b600080fd5b610156600480360381019061015191906133e6565b6104ff565b6040516101699796959493929190613bfd565b60405180910390f35b61018c6004803603810190610187919061340f565b6107db565b6040516101999190613a8f565b60405180910390f35b6101bc60048036038101906101b791906133e6565b6109c0565b6040516101c99190613a8f565b60405180910390f35b6101ec60048036038101906101e7919061340f565b610ab4565b6040516101f99190613a8f565b60405180910390f35b61021c600480360381019061021791906133e6565b610c99565b6040516102299190613aaa565b60405180910390f35b61024c600480360381019061024791906133e6565b610dc6565b6040516102599190613a8f565b60405180910390f35b61027c600480360381019061027791906133e6565b610eba565b6040516102899190613aaa565b60405180910390f35b6102ac60048036038101906102a791906137b3565b610fe7565b6040516102b99190613a8f565b60405180910390f35b6102dc60048036038101906102d791906135a3565b611246565b6040516102e99190613a8f565b60405180910390f35b61030c600480360381019061030791906133e6565b6114df565b60405161031d959493929190613b18565b60405180910390f35b61032e611856565b005b61034a600480360381019061034591906133e6565b611954565b60405161035993929190613acc565b60405180910390f35b61036a611bd6565b6040516103779190613a74565b60405180910390f35b61039a600480360381019061039591906136cd565b611bfa565b6040516103a79190613a8f565b60405180910390f35b6103ca60048036038101906103c591906133e6565b611e3c565b6040516103dd9796959493929190613d22565b60405180910390f35b61040060048036038101906103fb91906133e6565b612196565b60405161040f93929190613acc565b60405180910390f35b610432600480360381019061042d91906138c5565b612418565b60405161043f9190613a74565b60405180910390f35b610462600480360381019061045d91906133e6565b6126a8565b604051610473959493929190613b87565b60405180910390f35b610496600480360381019061049191906133e6565b612a61565b005b6104b260048036038101906104ad91906134ba565b612bb0565b6040516104bf9190613a8f565b60405180910390f35b6104e260048036038101906104dd91906133e6565b612e1a565b6040516104f6989796959493929190613c81565b60405180910390f35b6000606080606060008060006001600360003373ffffffffffffffffffffffffffffffffffffffff1673ffffffffffffffffffffffffffffffffffffffff16815260200190815260200160002060009054906101000a900460ff1660ff161461056757600080fd5b6000600760008a73ffffffffffffffffffffffffffffffffffffffff1673ffffffffffffffffffffffffffffffffffffffff168152602001908152602001600020604051806101000160405290816000820180546105c490613eb4565b80601f01602080910402602001604051908101604052809291908181526020018280546105f090613eb4565b801561063d5780601f106106125761010080835404028352916020019161063d565b820191906000526020600020905b81548152906001019060200180831161062057829003601f168201915b5050505050815260200160018201805461065690613eb4565b80601f016020809104026020016040519081016040528092919081815260200182805461068290613eb4565b80156106cf5780601f106106a4576101008083540402835291602001916106cf565b820191906000526020600020905b8154815290600101906020018083116106b257829003601f168201915b505050505081526020016002820180546106e890613eb4565b80601f016020809104026020016040519081016040528092919081815260200182805461071490613eb4565b80156107615780601f1061073657610100808354040283529160200191610761565b820191906000526020600020905b81548152906001019060200180831161074457829003601f168201915b50505050508152602001600382015481526020016004820154815260200160058201548152602001600682015481526020016007820154815250509050806060015181600001518260200151836040015184608001518560a001518660e00151975097509750975097509750975050919395979092949650565b60006001600360003373ffffffffffffffffffffffffffffffffffffffff1673ffffffffffffffffffffffffffffffffffffffff16815260200190815260200160002060009054906101000a900460ff1660ff161461083957600080fd5b836017600001908051906020019061085292919061320f565b50826017600101908051906020019061086c92919061320f565b50816017600201908051906020019061088692919061320f565b506017600660008773ffffffffffffffffffffffffffffffffffffffff1673ffffffffffffffffffffffffffffffffffffffff16815260200190815260200160002060008201816000019080546108dc90613eb4565b6108e7929190613295565b5060018201816001019080546108fc90613eb4565b610907929190613295565b50600282018160020190805461091c90613eb4565b610927929190613295565b509050506040518060400160405280600881526020017f4558504f52544552000000000000000000000000000000000000000000000000815250600a60008773ffffffffffffffffffffffffffffffffffffffff1673ffffffffffffffffffffffffffffffffffffffff16815260200190815260200160002090805190602001906109b392919061320f565b5060019050949350505050565b60008060009054906101000a900473ffffffffffffffffffffffffffffffffffffffff1673ffffffffffffffffffffffffffffffffffffffff163373ffffffffffffffffffffffffffffffffffffffff1614610a1b57600080fd5b6000600360008473ffffffffffffffffffffffffffffffffffffffff1673ffffffffffffffffffffffffffffffffffffffff16815260200190815260200160002060006101000a81548160ff021916908360ff1602179055507f9e8ca6ff03906e81e8a6a03d4f96b7edb0b97f0ed9d07ef1b699fff63438549682604051610aa39190613a74565b60405180910390a160019050919050565b60006001600360003373ffffffffffffffffffffffffffffffffffffffff1673ffffffffffffffffffffffffffffffffffffffff16815260200190815260200160002060009054906101000a900460ff1660ff1614610b1257600080fd5b8360146000019080519060200190610b2b92919061320f565b508260146001019080519060200190610b4592919061320f565b508160146002019080519060200190610b5f92919061320f565b506014600560008773ffffffffffffffffffffffffffffffffffffffff1673ffffffffffffffffffffffffffffffffffffffff1681526020019081526020016000206000820181600001908054610bb590613eb4565b610bc0929190613295565b506001820181600101908054610bd590613eb4565b610be0929190613295565b506002820181600201908054610bf590613eb4565b610c00929190613295565b509050506040518060400160405280600981526020017f4841525645535445520000000000000000000000000000000000000000000000815250600a60008773ffffffffffffffffffffffffffffffffffffffff1673ffffffffffffffffffffffffffffffffffffffff1681526020019081526020016000209080519060200190610c8c92919061320f565b5060019050949350505050565b60606001600360003373ffffffffffffffffffffffffffffffffffffffff1673ffffffffffffffffffffffffffffffffffffffff16815260200190815260200160002060009054906101000a900460ff1660ff1614610cf757600080fd5b600260008373ffffffffffffffffffffffffffffffffffffffff1673ffffffffffffffffffffffffffffffffffffffff1681526020019081526020016000208054610d4190613eb4565b80601f0160208091040260200160405190810160405280929190818152602001828054610d6d90613eb4565b8015610dba5780601f10610d8f57610100808354040283529160200191610dba565b820191906000526020600020905b815481529060010190602001808311610d9d57829003601f168201915b50505050509050919050565b60008060009054906101000a900473ffffffffffffffffffffffffffffffffffffffff1673ffffffffffffffffffffffffffffffffffffffff163373ffffffffffffffffffffffffffffffffffffffff1614610e2157600080fd5b6001600360008473ffffffffffffffffffffffffffffffffffffffff1673ffffffffffffffffffffffffffffffffffffffff16815260200190815260200160002060006101000a81548160ff021916908360ff1602179055507f8afeca650897be3183b7c0d24eba96a1b990f75c4bd74a0cfb2c0a71aec48e6182604051610ea99190613a74565b60405180910390a160019050919050565b60606001600360003373ffffffffffffffffffffffffffffffffffffffff1673ffffffffffffffffffffffffffffffffffffffff16815260200190815260200160002060009054906101000a900460ff1660ff1614610f1857600080fd5b600a60008373ffffffffffffffffffffffffffffffffffffffff1673ffffffffffffffffffffffffffffffffffffffff1681526020019081526020016000208054610f6290613eb4565b80601f0160208091040260200160405190810160405280929190818152602001828054610f8e90613eb4565b8015610fdb5780601f10610fb057610100808354040283529160200191610fdb565b820191906000526020600020905b815481529060010190602001808311610fbe57829003601f168201915b50505050509050919050565b60006001600360003373ffffffffffffffffffffffffffffffffffffffff1673ffffffffffffffffffffffffffffffffffffffff16815260200190815260200160002060009054906101000a900460ff1660ff161461104557600080fd5b87602a6000018190555086602a600301908051906020019061106892919061320f565b5085602a6001018190555084602a600401908051906020019061108c92919061320f565b5083602a6002018190555082602a60050190805190602001906110b092919061320f565b5081602a60060190805190602001906110ca92919061320f565b50602a600960008b73ffffffffffffffffffffffffffffffffffffffff1673ffffffffffffffffffffffffffffffffffffffff168152602001908152602001600020600082015481600001556001820154816001015560028201548160020155600382018160030190805461113e90613eb4565b611149929190613295565b50600482018160040190805461115e90613eb4565b611169929190613295565b50600582018160050190805461117e90613eb4565b611189929190613295565b50600682018160060190805461119e90613eb4565b6111a9929190613295565b509050506040518060400160405280600481526020017f444f4e4500000000000000000000000000000000000000000000000000000000815250600a60008b73ffffffffffffffffffffffffffffffffffffffff1673ffffffffffffffffffffffffffffffffffffffff168152602001908152602001600020908051906020019061123592919061320f565b506001905098975050505050505050565b60006001600360003373ffffffffffffffffffffffffffffffffffffffff1673ffffffffffffffffffffffffffffffffffffffff16815260200190815260200160002060009054906101000a900460ff1660ff16146112a457600080fd5b8760226000018190555086602260030190805190602001906112c792919061320f565b5085602260040190805190602001906112e192919061320f565b5042602260010181905550846022600501908051906020019061130592919061320f565b50836022600601908051906020019061131f92919061320f565b50826022600701908051906020019061133992919061320f565b50816022600201819055506022600860008b73ffffffffffffffffffffffffffffffffffffffff1673ffffffffffffffffffffffffffffffffffffffff16815260200190815260200160002060008201548160000155600182015481600101556002820154816002015560038201816003019080546113b790613eb4565b6113c2929190613295565b5060048201816004019080546113d790613eb4565b6113e2929190613295565b5060058201816005019080546113f790613eb4565b611402929190613295565b50600682018160060190805461141790613eb4565b611422929190613295565b50600782018160070190805461143790613eb4565b611442929190613295565b509050506040518060400160405280600981526020017f50524f434553534f520000000000000000000000000000000000000000000000815250600a60008b73ffffffffffffffffffffffffffffffffffffffff1673ffffffffffffffffffffffffffffffffffffffff16815260200190815260200160002090805190602001906114ce92919061320f565b506001905098975050505050505050565b6060806060600060606001600360003373ffffffffffffffffffffffffffffffffffffffff1673ffffffffffffffffffffffffffffffffffffffff16815260200190815260200160002060009054906101000a900460ff1660ff161461154457600080fd5b6000600160008873ffffffffffffffffffffffffffffffffffffffff1673ffffffffffffffffffffffffffffffffffffffff1681526020019081526020016000206040518060800160405290816000820180546115a090613eb4565b80601f01602080910402602001604051908101604052809291908181526020018280546115cc90613eb4565b80156116195780601f106115ee57610100808354040283529160200191611619565b820191906000526020600020905b8154815290600101906020018083116115fc57829003601f168201915b5050505050815260200160018201805461163290613eb4565b80601f016020809104026020016040519081016040528092919081815260200182805461165e90613eb4565b80156116ab5780601f10611680576101008083540402835291602001916116ab565b820191906000526020600020905b81548152906001019060200180831161168e57829003601f168201915b505050505081526020016002820160009054906101000a900460ff161515151581526020016003820180546116df90613eb4565b80601f016020809104026020016040519081016040528092919081815260200182805461170b90613eb4565b80156117585780601f1061172d57610100808354040283529160200191611758565b820191906000526020600020905b81548152906001019060200180831161173b57829003601f168201915b505050505081525050905080600001518160200151600260008a73ffffffffffffffffffffffffffffffffffffffff1673ffffffffffffffffffffffffffffffffffffffff168152602001908152602001600020836040015184606001518280546117c290613eb4565b80601f01602080910402602001604051908101604052809291908181526020018280546117ee90613eb4565b801561183b5780601f106118105761010080835404028352916020019161183b565b820191906000526020600020905b81548152906001019060200180831161181e57829003601f168201915b50505050509250955095509550955095505091939590929450565b60008054906101000a900473ffffffffffffffffffffffffffffffffffffffff1673ffffffffffffffffffffffffffffffffffffffff163373ffffffffffffffffffffffffffffffffffffffff16146118ae57600080fd5b60008054906101000a900473ffffffffffffffffffffffffffffffffffffffff1673ffffffffffffffffffffffffffffffffffffffff167ff8df31144d9c2f0f6b59d69b8b98abd5459d07f2742c4df920b25aae33c6482060405160405180910390a260008060006101000a81548173ffffffffffffffffffffffffffffffffffffffff021916908373ffffffffffffffffffffffffffffffffffffffff160217905550565b60608060606001600360003373ffffffffffffffffffffffffffffffffffffffff1673ffffffffffffffffffffffffffffffffffffffff16815260200190815260200160002060009054906101000a900460ff1660ff16146119b557600080fd5b6000600560008673ffffffffffffffffffffffffffffffffffffffff1673ffffffffffffffffffffffffffffffffffffffff168152602001908152602001600020604051806060016040529081600082018054611a1190613eb4565b80601f0160208091040260200160405190810160405280929190818152602001828054611a3d90613eb4565b8015611a8a5780601f10611a5f57610100808354040283529160200191611a8a565b820191906000526020600020905b815481529060010190602001808311611a6d57829003601f168201915b50505050508152602001600182018054611aa390613eb4565b80601f0160208091040260200160405190810160405280929190818152602001828054611acf90613eb4565b8015611b1c5780601f10611af157610100808354040283529160200191611b1c565b820191906000526020600020905b815481529060010190602001808311611aff57829003601f168201915b50505050508152602001600282018054611b3590613eb4565b80601f0160208091040260200160405190810160405280929190818152602001828054611b6190613eb4565b8015611bae5780601f10611b8357610100808354040283529160200191611bae565b820191906000526020600020905b815481529060010190602001808311611b9157829003601f168201915b5050505050815250509050806000015181602001518260400151935093509350509193909250565b60008054906101000a900473ffffffffffffffffffffffffffffffffffffffff1681565b60006001600360003373ffffffffffffffffffffffffffffffffffffffff1673ffffffffffffffffffffffffffffffffffffffff16815260200190815260200160002060009054906101000a900460ff1660ff1614611c5857600080fd5b86601a6003018190555085601a6000019080519060200190611c7b92919061320f565b5084601a6001019080519060200190611c9592919061320f565b5083601a6002019080519060200190611caf92919061320f565b5042601a6004018190555082601a6005018190555081601a60070181905550601a600760008a73ffffffffffffffffffffffffffffffffffffffff1673ffffffffffffffffffffffffffffffffffffffff1681526020019081526020016000206000820181600001908054611d2390613eb4565b611d2e929190613295565b506001820181600101908054611d4390613eb4565b611d4e929190613295565b506002820181600201908054611d6390613eb4565b611d6e929190613295565b5060038201548160030155600482015481600401556005820154816005015560068201548160060155600782015481600701559050506040518060400160405280600881526020017f494d504f52544552000000000000000000000000000000000000000000000000815250600a60008a73ffffffffffffffffffffffffffffffffffffffff1673ffffffffffffffffffffffffffffffffffffffff1681526020019081526020016000209080519060200190611e2c92919061320f565b5060019050979650505050505050565b600060606000606060006060806001600360003373ffffffffffffffffffffffffffffffffffffffff1673ffffffffffffffffffffffffffffffffffffffff16815260200190815260200160002060009054906101000a900460ff1660ff1614611ea557600080fd5b6000600960008a73ffffffffffffffffffffffffffffffffffffffff1673ffffffffffffffffffffffffffffffffffffffff1681526020019081526020016000206040518060e0016040529081600082015481526020016001820154815260200160028201548152602001600382018054611f1f90613eb4565b80601f0160208091040260200160405190810160405280929190818152602001828054611f4b90613eb4565b8015611f985780601f10611f6d57610100808354040283529160200191611f98565b820191906000526020600020905b815481529060010190602001808311611f7b57829003601f168201915b50505050508152602001600482018054611fb190613eb4565b80601f0160208091040260200160405190810160405280929190818152602001828054611fdd90613eb4565b801561202a5780601f10611fff5761010080835404028352916020019161202a565b820191906000526020600020905b81548152906001019060200180831161200d57829003601f168201915b5050505050815260200160058201805461204390613eb4565b80601f016020809104026020016040519081016040528092919081815260200182805461206f90613eb4565b80156120bc5780601f10612091576101008083540402835291602001916120bc565b820191906000526020600020905b81548152906001019060200180831161209f57829003601f168201915b505050505081526020016006820180546120d590613eb4565b80601f016020809104026020016040519081016040528092919081815260200182805461210190613eb4565b801561214e5780601f106121235761010080835404028352916020019161214e565b820191906000526020600020905b81548152906001019060200180831161213157829003601f168201915b5050505050815250509050806000015181606001518260200151836080015184604001518560a001518660c00151975097509750975097509750975050919395979092949650565b60608060606001600360003373ffffffffffffffffffffffffffffffffffffffff1673ffffffffffffffffffffffffffffffffffffffff16815260200190815260200160002060009054906101000a900460ff1660ff16146121f757600080fd5b6000600660008673ffffffffffffffffffffffffffffffffffffffff1673ffffffffffffffffffffffffffffffffffffffff16815260200190815260200160002060405180606001604052908160008201805461225390613eb4565b80601f016020809104026020016040519081016040528092919081815260200182805461227f90613eb4565b80156122cc5780601f106122a1576101008083540402835291602001916122cc565b820191906000526020600020905b8154815290600101906020018083116122af57829003601f168201915b505050505081526020016001820180546122e590613eb4565b80601f016020809104026020016040519081016040528092919081815260200182805461231190613eb4565b801561235e5780601f106123335761010080835404028352916020019161235e565b820191906000526020600020905b81548152906001019060200180831161234157829003601f168201915b5050505050815260200160028201805461237790613eb4565b80601f01602080910402602001604051908101604052809291908181526020018280546123a390613eb4565b80156123f05780601f106123c5576101008083540402835291602001916123f0565b820191906000526020600020905b8154815290600101906020018083116123d357829003601f168201915b5050505050815250509050806000015181602001518260400151935093509350509193909250565b60006001600360003373ffffffffffffffffffffffffffffffffffffffff1673ffffffffffffffffffffffffffffffffffffffff16815260200190815260200160002060009054906101000a900460ff1660ff161461247657600080fd5b6000334260405160200161248b929190613a48565b60405160208183030381529060405280519060200120905060008160601c905087600f60000190805190602001906124c492919061320f565b5086600f60010190805190602001906124de92919061320f565b5085600f60020190805190602001906124f892919061320f565b5084600f600301908051906020019061251292919061320f565b5083600f600401908051906020019061252c92919061320f565b50600f600460008373ffffffffffffffffffffffffffffffffffffffff1673ffffffffffffffffffffffffffffffffffffffff168152602001908152602001600020600082018160000190805461258290613eb4565b61258d929190613295565b5060018201816001019080546125a290613eb4565b6125ad929190613295565b5060028201816002019080546125c290613eb4565b6125cd929190613295565b5060038201816003019080546125e290613eb4565b6125ed929190613295565b50600482018160040190805461260290613eb4565b61260d929190613295565b509050506040518060400160405280600f81526020017f4641524d5f494e5350454354494f4e0000000000000000000000000000000000815250600a60008373ffffffffffffffffffffffffffffffffffffffff1673ffffffffffffffffffffffffffffffffffffffff168152602001908152602001600020908051906020019061269992919061320f565b50809250505095945050505050565b60608060608060606001600360003373ffffffffffffffffffffffffffffffffffffffff1673ffffffffffffffffffffffffffffffffffffffff16815260200190815260200160002060009054906101000a900460ff1660ff161461270c57600080fd5b6000600460008873ffffffffffffffffffffffffffffffffffffffff1673ffffffffffffffffffffffffffffffffffffffff1681526020019081526020016000206040518060a001604052908160008201805461276890613eb4565b80601f016020809104026020016040519081016040528092919081815260200182805461279490613eb4565b80156127e15780601f106127b6576101008083540402835291602001916127e1565b820191906000526020600020905b8154815290600101906020018083116127c457829003601f168201915b505050505081526020016001820180546127fa90613eb4565b80601f016020809104026020016040519081016040528092919081815260200182805461282690613eb4565b80156128735780601f1061284857610100808354040283529160200191612873565b820191906000526020600020905b81548152906001019060200180831161285657829003601f168201915b5050505050815260200160028201805461288c90613eb4565b80601f01602080910402602001604051908101604052809291908181526020018280546128b890613eb4565b80156129055780601f106128da57610100808354040283529160200191612905565b820191906000526020600020905b8154815290600101906020018083116128e857829003601f168201915b5050505050815260200160038201805461291e90613eb4565b80601f016020809104026020016040519081016040528092919081815260200182805461294a90613eb4565b80156129975780601f1061296c57610100808354040283529160200191612997565b820191906000526020600020905b81548152906001019060200180831161297a57829003601f168201915b505050505081526020016004820180546129b090613eb4565b80601f01602080910402602001604051908101604052809291908181526020018280546129dc90613eb4565b8015612a295780601f106129fe57610100808354040283529160200191612a29565b820191906000526020600020905b815481529060010190602001808311612a0c57829003601f168201915b505050505081525050905080600001518160200151826040015183606001518460800151955095509550955095505091939590929450565b60008054906101000a900473ffffffffffffffffffffffffffffffffffffffff1673ffffffffffffffffffffffffffffffffffffffff163373ffffffffffffffffffffffffffffffffffffffff1614612ab957600080fd5b600073ffffffffffffffffffffffffffffffffffffffff168173ffffffffffffffffffffffffffffffffffffffff161415612af357600080fd5b8073ffffffffffffffffffffffffffffffffffffffff1660008054906101000a900473ffffffffffffffffffffffffffffffffffffffff1673ffffffffffffffffffffffffffffffffffffffff167f8be0079c531659141344cd1fd0a4f28419497f9722a3daafe3b4186f6b6457e060405160405180910390a3806000806101000a81548173ffffffffffffffffffffffffffffffffffffffff021916908373ffffffffffffffffffffffffffffffffffffffff16021790555050565b60006001600360003373ffffffffffffffffffffffffffffffffffffffff1673ffffffffffffffffffffffffffffffffffffffff16815260200190815260200160002060009054906101000a900460ff1660ff1614612c0e57600080fd5b85600b6000019080519060200190612c2792919061320f565b5084600b6001019080519060200190612c4192919061320f565b5082600b60020160006101000a81548160ff02191690831515021790555081600b6003019080519060200190612c7892919061320f565b50600b600160008973ffffffffffffffffffffffffffffffffffffffff1673ffffffffffffffffffffffffffffffffffffffff1681526020019081526020016000206000820181600001908054612cce90613eb4565b612cd9929190613295565b506001820181600101908054612cee90613eb4565b612cf9929190613295565b506002820160009054906101000a900460ff168160020160006101000a81548160ff0219169083151502179055506003820181600301908054612d3b90613eb4565b612d46929190613295565b5090505083600260008973ffffffffffffffffffffffffffffffffffffffff1673ffffffffffffffffffffffffffffffffffffffff1681526020019081526020016000209080519060200190612d9d92919061320f565b507f1d222b775a8ac40f88e57f60a9f9cef32825dee88b7d0a2e757e7dd2082cbe7733604051612dcd9190613a74565b60405180910390a17f5108391b825bd4c3d7f3c6a8d5cb1dfb3d7db4e2663bdef2d6a43643d6c3851333604051612e049190613a74565b60405180910390a1600190509695505050505050565b60006060806000606080606060006001600360003373ffffffffffffffffffffffffffffffffffffffff1673ffffffffffffffffffffffffffffffffffffffff16815260200190815260200160002060009054906101000a900460ff1660ff1614612e8457600080fd5b6000600860008b73ffffffffffffffffffffffffffffffffffffffff1673ffffffffffffffffffffffffffffffffffffffff16815260200190815260200160002060405180610100016040529081600082015481526020016001820154815260200160028201548152602001600382018054612eff90613eb4565b80601f0160208091040260200160405190810160405280929190818152602001828054612f2b90613eb4565b8015612f785780601f10612f4d57610100808354040283529160200191612f78565b820191906000526020600020905b815481529060010190602001808311612f5b57829003601f168201915b50505050508152602001600482018054612f9190613eb4565b80601f0160208091040260200160405190810160405280929190818152602001828054612fbd90613eb4565b801561300a5780601f10612fdf5761010080835404028352916020019161300a565b820191906000526020600020905b815481529060010190602001808311612fed57829003601f168201915b5050505050815260200160058201805461302390613eb4565b80601f016020809104026020016040519081016040528092919081815260200182805461304f90613eb4565b801561309c5780601f106130715761010080835404028352916020019161309c565b820191906000526020600020905b81548152906001019060200180831161307f57829003601f168201915b505050505081526020016006820180546130b590613eb4565b80601f01602080910402602001604051908101604052809291908181526020018280546130e190613eb4565b801561312e5780601f106131035761010080835404028352916020019161312e565b820191906000526020600020905b81548152906001019060200180831161311157829003601f168201915b5050505050815260200160078201805461314790613eb4565b80601f016020809104026020016040519081016040528092919081815260200182805461317390613eb4565b80156131c05780601f10613195576101008083540402835291602001916131c0565b820191906000526020600020905b8154815290600101906020018083116131a357829003601f168201915b505050505081525050905080600001518160600151826080015183602001518460a001518560c001518660e0015187604001519850985098509850985098509850985050919395975091939597565b82805461321b90613eb4565b90600052602060002090601f01602090048101928261323d5760008555613284565b82601f1061325657805160ff1916838001178555613284565b82800160010185558215613284579182015b82811115613283578251825591602001919060010190613268565b5b5090506132919190613322565b5090565b8280546132a190613eb4565b90600052602060002090601f0160209004810192826132c35760008555613311565b82601f106132d45780548555613311565b8280016001018555821561331157600052602060002091601f016020900482015b828111156133105782548255916001019190600101906132f5565b5b50905061331e9190613322565b5090565b5b8082111561333b576000816000905550600101613323565b5090565b600061335261334d84613dde565b613dad565b90508281526020810184848401111561336a57600080fd5b613375848285613e72565b509392505050565b60008135905061338c81613f90565b92915050565b6000813590506133a181613fa7565b92915050565b600082601f8301126133b857600080fd5b81356133c884826020860161333f565b91505092915050565b6000813590506133e081613fbe565b92915050565b6000602082840312156133f857600080fd5b60006134068482850161337d565b91505092915050565b6000806000806080858703121561342557600080fd5b60006134338782880161337d565b945050602085013567ffffffffffffffff81111561345057600080fd5b61345c878288016133a7565b935050604085013567ffffffffffffffff81111561347957600080fd5b613485878288016133a7565b925050606085013567ffffffffffffffff8111156134a257600080fd5b6134ae878288016133a7565b91505092959194509250565b60008060008060008060c087890312156134d357600080fd5b60006134e189828a0161337d565b965050602087013567ffffffffffffffff8111156134fe57600080fd5b61350a89828a016133a7565b955050604087013567ffffffffffffffff81111561352757600080fd5b61353389828a016133a7565b945050606087013567ffffffffffffffff81111561355057600080fd5b61355c89828a016133a7565b935050608061356d89828a01613392565b92505060a087013567ffffffffffffffff81111561358a57600080fd5b61359689828a016133a7565b9150509295509295509295565b600080600080600080600080610100898b0312156135c057600080fd5b60006135ce8b828c0161337d565b98505060206135df8b828c016133d1565b975050604089013567ffffffffffffffff8111156135fc57600080fd5b6136088b828c016133a7565b965050606089013567ffffffffffffffff81111561362557600080fd5b6136318b828c016133a7565b955050608089013567ffffffffffffffff81111561364e57600080fd5b61365a8b828c016133a7565b94505060a089013567ffffffffffffffff81111561367757600080fd5b6136838b828c016133a7565b93505060c089013567ffffffffffffffff8111156136a057600080fd5b6136ac8b828c016133a7565b92505060e06136bd8b828c016133d1565b9150509295985092959890939650565b600080600080600080600060e0888a0312156136e857600080fd5b60006136f68a828b0161337d565b97505060206137078a828b016133d1565b965050604088013567ffffffffffffffff81111561372457600080fd5b6137308a828b016133a7565b955050606088013567ffffffffffffffff81111561374d57600080fd5b6137598a828b016133a7565b945050608088013567ffffffffffffffff81111561377657600080fd5b6137828a828b016133a7565b93505060a06137938a828b016133d1565b92505060c06137a48a828b016133d1565b91505092959891949750929550565b600080600080600080600080610100898b0312156137d057600080fd5b60006137de8b828c0161337d565b98505060206137ef8b828c016133d1565b975050604089013567ffffffffffffffff81111561380c57600080fd5b6138188b828c016133a7565b96505060606138298b828c016133d1565b955050608089013567ffffffffffffffff81111561384657600080fd5b6138528b828c016133a7565b94505060a06138638b828c016133d1565b93505060c089013567ffffffffffffffff81111561388057600080fd5b61388c8b828c016133a7565b92505060e089013567ffffffffffffffff8111156138a957600080fd5b6138b58b828c016133a7565b9150509295985092959890939650565b600080600080600060a086880312156138dd57600080fd5b600086013567ffffffffffffffff8111156138f757600080fd5b613903888289016133a7565b955050602086013567ffffffffffffffff81111561392057600080fd5b61392c888289016133a7565b945050604086013567ffffffffffffffff81111561394957600080fd5b613955888289016133a7565b935050606086013567ffffffffffffffff81111561397257600080fd5b61397e888289016133a7565b925050608086013567ffffffffffffffff81111561399b57600080fd5b6139a7888289016133a7565b9150509295509295909350565b6139bd81613e2a565b82525050565b6139d46139cf82613e2a565b613ee6565b82525050565b6139e381613e3c565b82525050565b60006139f482613e0e565b6139fe8185613e19565b9350613a0e818560208601613e81565b613a1781613f72565b840191505092915050565b613a2b81613e68565b82525050565b613a42613a3d82613e68565b613f0a565b82525050565b6000613a5482856139c3565b601482019150613a648284613a31565b6020820191508190509392505050565b6000602082019050613a8960008301846139b4565b92915050565b6000602082019050613aa460008301846139da565b92915050565b60006020820190508181036000830152613ac481846139e9565b905092915050565b60006060820190508181036000830152613ae681866139e9565b90508181036020830152613afa81856139e9565b90508181036040830152613b0e81846139e9565b9050949350505050565b600060a0820190508181036000830152613b3281886139e9565b90508181036020830152613b4681876139e9565b90508181036040830152613b5a81866139e9565b9050613b6960608301856139da565b8181036080830152613b7b81846139e9565b90509695505050505050565b600060a0820190508181036000830152613ba181886139e9565b90508181036020830152613bb581876139e9565b90508181036040830152613bc981866139e9565b90508181036060830152613bdd81856139e9565b90508181036080830152613bf181846139e9565b90509695505050505050565b600060e082019050613c12600083018a613a22565b8181036020830152613c2481896139e9565b90508181036040830152613c3881886139e9565b90508181036060830152613c4c81876139e9565b9050613c5b6080830186613a22565b613c6860a0830185613a22565b613c7560c0830184613a22565b98975050505050505050565b600061010082019050613c97600083018b613a22565b8181036020830152613ca9818a6139e9565b90508181036040830152613cbd81896139e9565b9050613ccc6060830188613a22565b8181036080830152613cde81876139e9565b905081810360a0830152613cf281866139e9565b905081810360c0830152613d0681856139e9565b9050613d1560e0830184613a22565b9998505050505050505050565b600060e082019050613d37600083018a613a22565b8181036020830152613d4981896139e9565b9050613d586040830188613a22565b8181036060830152613d6a81876139e9565b9050613d796080830186613a22565b81810360a0830152613d8b81856139e9565b905081810360c0830152613d9f81846139e9565b905098975050505050505050565b6000604051905081810181811067ffffffffffffffff82111715613dd457613dd3613f43565b5b8060405250919050565b600067ffffffffffffffff821115613df957613df8613f43565b5b601f19601f8301169050602081019050919050565b600081519050919050565b600082825260208201905092915050565b6000613e3582613e48565b9050919050565b60008115159050919050565b600073ffffffffffffffffffffffffffffffffffffffff82169050919050565b6000819050919050565b82818337600083830152505050565b60005b83811015613e9f578082015181840152602081019050613e84565b83811115613eae576000848401525b50505050565b60006002820490506001821680613ecc57607f821691505b60208210811415613ee057613edf613f14565b5b50919050565b6000613ef182613ef8565b9050919050565b6000613f0382613f83565b9050919050565b6000819050919050565b7f4e487b7100000000000000000000000000000000000000000000000000000000600052602260045260246000fd5b7f4e487b7100000000000000000000000000000000000000000000000000000000600052604160045260246000fd5b6000601f19601f8301169050919050565b60008160601b9050919050565b613f9981613e2a565b8114613fa457600080fd5b50565b613fb081613e3c565b8114613fbb57600080fd5b50565b613fc781613e68565b8114613fd257600080fd5b5056fea26469706673582212209a40d54979ed3fa0b211d8535abf0e822d84f207cbb31baf0c15b4044d6103d564736f6c63430008000033",
  "immutableReferences": {},
  "source": "// SPDX-License-Identifier: MIT\npragma solidity ^0.8.0;\n\nimport \"./SupplyChainStorageOwnable.sol\";\n\ncontract SupplyChainStorage is SupplyChainStorageOwnable {\n    \n    constructor() public {\n        authorizedCaller[msg.sender] = 1;\n        emit AuthorizedCaller(msg.sender);\n    }\n    \n    /* Events */\n    event AuthorizedCaller(address caller);\n    event DeAuthorizedCaller(address caller);\n    event UserUpdate(address caller);\n    event UserRoleUpdate(address caller);\n    \n    /* Modifiers */\n    \n    modifier onlyAuthCaller(){\n        require(authorizedCaller[msg.sender] == 1);\n        _;\n    }\n    \n    /* User Related */\n    struct user {\n        string name;\n        string contactNo;\n        bool isActive;\n        string profileHash;\n    } \n    \n    mapping(address => user) userDetails;\n    mapping(address => string) userRole;\n    \n    /* Caller Mapping */\n    mapping(address => uint8) authorizedCaller;\n    \n    /* authorize caller */\n    function authorizeCaller(address _caller) public onlyOwner returns(bool) \n    {\n        authorizedCaller[_caller] = 1;\n        emit AuthorizedCaller(_caller);\n        return true;\n    }\n    \n    /* deauthorize caller */\n    function deAuthorizeCaller(address _caller) public onlyOwner returns(bool) \n    {\n        authorizedCaller[_caller] = 0;\n        emit DeAuthorizedCaller(_caller);\n        return true;\n    }\n    \n    /*User Roles\n        SUPER_ADMIN,\n        FARM_INSPECTION,\n        HARVESTER,\n        EXPORTER,\n        IMPORTER,\n        PROCESSOR\n    */\n    \n    /* Process Related */\n     struct basicDetails {\n        string registrationNo;\n        string farmerName;\n        string farmAddress;\n        string exporterName;\n        string importerName;\n        \n    }\n    \n    struct farmInspector {\n        string coffeeFamily;\n        string typeOfSeed;\n        string fertilizerUsed;\n    }\n    \n    struct harvester {\n        string cropVariety;\n        string temperatureUsed;\n        string humidity;\n    }    \n    \n    struct exporter {\n        string destinationAddress;\n        string shipName;\n        string shipNo;\n        uint256 quantity;\n        uint256 departureDateTime;\n        uint256 estimateDateTime;\n        uint256 plantNo;\n        uint256 exporterId;\n    }\n    \n    struct importer {\n        uint256 quantity;\n        uint256 arrivalDateTime;\n        uint256 importerId;\n        string shipName;\n        string shipNo;\n        string transportInfo;\n        string warehouseName;\n        string warehouseAddress;\n    }\n    \n    struct processor {\n        uint256 quantity;\n        uint256 rostingDuration;\n        uint256 packageDateTime;\n        string temperature;\n        string internalBatchNo;\n        string processorName;\n        string processorAddress;\n    }\n    \n    mapping (address => basicDetails) batchBasicDetails;\n    mapping (address => farmInspector) batchFarmInspector;\n    mapping (address => harvester) batchHarvester;\n    mapping (address => exporter) batchExporter;\n    mapping (address => importer) batchImporter;\n    mapping (address => processor) batchProcessor;\n    mapping (address => string) nextAction;\n    \n    /*Initialize struct pointer*/\n    user userDetail;\n    basicDetails basicDetailsData;\n    farmInspector farmInspectorData;\n    harvester harvesterData;\n    exporter exporterData;\n    importer importerData;\n    processor processorData; \n    \n    \n    \n    /* Get User Role */\n    function getUserRole(address _userAddress) public onlyAuthCaller view returns(string memory)\n    {\n        return userRole[_userAddress];\n    }\n    \n    /* Get Next Action  */    \n    function getNextAction(address _batchNo) public onlyAuthCaller view returns(string memory)\n    {\n        return nextAction[_batchNo];\n    }\n        \n    /*set user details*/\n    function setUser(\n        address _userAddress,\n        string memory _name, \n        string memory _contactNo, \n        string memory _role, \n        bool _isActive,\n        string memory _profileHash\n    ) public onlyAuthCaller returns(bool){\n        \n        /*store data into struct*/\n        userDetail.name = _name;\n        userDetail.contactNo = _contactNo;\n        userDetail.isActive = _isActive;\n        userDetail.profileHash = _profileHash;\n        \n        /*store data into mapping*/\n        userDetails[_userAddress] = userDetail;\n        userRole[_userAddress] = _role;\n\n        emit UserUpdate(msg.sender);\n        emit UserRoleUpdate(msg.sender);\n        \n        return true;\n    }  \n    \n    /*get user details*/\n    function getUser(address _userAddress) public onlyAuthCaller view returns(\n        string memory name, \n        string memory contactNo, \n        string memory role,\n        bool isActive, \n        string memory profileHash\n    ) {\n\n        /*Getting value from struct*/\n        user memory tmpData = userDetails[_userAddress];\n        \n        return (tmpData.name, tmpData.contactNo, userRole[_userAddress], tmpData.isActive, tmpData.profileHash);\n    }\n    \n    /*get batch basicDetails*/\n    function getBasicDetails(address _batchNo) public onlyAuthCaller view returns(\n        string memory registrationNo,\n        string memory farmerName,\n        string memory farmAddress,\n        string memory exporterName,\n        string memory importerName\n    ) {\n        \n        basicDetails memory tmpData = batchBasicDetails[_batchNo];\n        \n        return (tmpData.registrationNo,tmpData.farmerName,tmpData.farmAddress,tmpData.exporterName,tmpData.importerName);\n    }\n    \n    /*set batch basicDetails*/\n    function setBasicDetails(\n        string memory _registrationNo,\n        string memory _farmerName,\n        string memory _farmAddress,\n        string memory _exporterName,\n        string memory _importerName                         \n    ) public onlyAuthCaller returns(address) {\n        \n        bytes32 tmpData = keccak256(abi.encodePacked(msg.sender, block.timestamp));\n        address batchNo = address(bytes20(tmpData));\n        \n        basicDetailsData.registrationNo = _registrationNo;\n        basicDetailsData.farmerName = _farmerName;\n        basicDetailsData.farmAddress = _farmAddress;\n        basicDetailsData.exporterName = _exporterName;\n        basicDetailsData.importerName = _importerName;\n        \n        batchBasicDetails[batchNo] = basicDetailsData;\n        \n        nextAction[batchNo] = 'FARM_INSPECTION';   \n        \n        return batchNo;\n    }\n    \n    /*set farm Inspector data*/\n    function setFarmInspectorData(\n        address batchNo,\n        string memory _coffeeFamily,\n        string memory _typeOfSeed,\n        string memory _fertilizerUsed\n    ) public onlyAuthCaller returns(bool) {\n\n        farmInspectorData.coffeeFamily = _coffeeFamily;\n        farmInspectorData.typeOfSeed = _typeOfSeed;\n        farmInspectorData.fertilizerUsed = _fertilizerUsed;\n        \n        batchFarmInspector[batchNo] = farmInspectorData;\n        \n        nextAction[batchNo] = 'HARVESTER'; \n        \n        return true;\n    }\n    \n    \n    /*get farm inspactor data*/\n    function getFarmInspectorData(address batchNo) public onlyAuthCaller view returns (\n        string memory coffeeFamily, \n        string memory typeOfSeed,\n        string memory fertilizerUsed\n    ) {\n        \n        farmInspector memory tmpData = batchFarmInspector[batchNo];\n        return (tmpData.coffeeFamily, tmpData.typeOfSeed, tmpData.fertilizerUsed);\n    }\n    \n\n    /*set Harvester data*/\n    function setHarvesterData(address batchNo,\n                              string memory _cropVariety,\n                              string memory _temperatureUsed,\n                              string memory _humidity) public onlyAuthCaller returns(bool){\n        harvesterData.cropVariety = _cropVariety;\n        harvesterData.temperatureUsed = _temperatureUsed;\n        harvesterData.humidity = _humidity;\n        \n        batchHarvester[batchNo] = harvesterData;\n        \n        nextAction[batchNo] = 'EXPORTER'; \n        \n        return true;\n    }\n    \n    /*get farm Harvester data*/\n    function getHarvesterData(address batchNo) public onlyAuthCaller view returns(string memory cropVariety,\n                                                                                  string memory temperatureUsed,\n                                                                                  string memory humidity )\n    {    \n        harvester memory tmpData = batchHarvester[batchNo];\n        return (tmpData.cropVariety, tmpData.temperatureUsed, tmpData.humidity);\n    }\n    \n    /*set Exporter data*/\n    function setExporterData(\n        address batchNo,\n        uint256 _quantity,    \n        string memory _destinationAddress,\n        string memory _shipName,\n        string memory _shipNo,\n        uint256 _estimateDateTime,\n        uint256 _exporterId\n    ) public onlyAuthCaller returns(bool) {\n        \n        exporterData.quantity = _quantity;\n        exporterData.destinationAddress = _destinationAddress;\n        exporterData.shipName = _shipName;\n        exporterData.shipNo = _shipNo;\n        exporterData.departureDateTime = block.timestamp;\n        exporterData.estimateDateTime = _estimateDateTime;\n        exporterData.exporterId = _exporterId;\n        \n        batchExporter[batchNo] = exporterData;\n        \n        nextAction[batchNo] = 'IMPORTER'; \n        \n        return true;\n    }\n    \n    /*get Exporter data*/\n    function getExporterData(address batchNo) public onlyAuthCaller view returns(\n        uint256 quantity,\n        string memory destinationAddress,\n        string memory shipName,\n        string memory shipNo,\n        uint256 departureDateTime,\n        uint256 estimateDateTime,\n        uint256 exporterId\n    ) {   \n        exporter memory tmpData = batchExporter[batchNo];\n        \n        \n        return (tmpData.quantity, \n                tmpData.destinationAddress, \n                tmpData.shipName, \n                tmpData.shipNo, \n                tmpData.departureDateTime, \n                tmpData.estimateDateTime, \n                tmpData.exporterId);\n                \n        \n    }\n\n    \n    /*set Importer data*/\n    function setImporterData(\n        address batchNo,\n        uint256 _quantity, \n        string memory _shipName,\n        string memory _shipNo,\n        string memory _transportInfo,\n        string memory _warehouseName,\n        string memory _warehouseAddress,\n        uint256 _importerId\n    ) public onlyAuthCaller returns(bool) {\n        \n        importerData.quantity = _quantity;\n        importerData.shipName = _shipName;\n        importerData.shipNo = _shipNo;\n        importerData.arrivalDateTime = block.timestamp;\n        importerData.transportInfo = _transportInfo;\n        importerData.warehouseName = _warehouseName;\n        importerData.warehouseAddress = _warehouseAddress;\n        importerData.importerId = _importerId;\n        \n        batchImporter[batchNo] = importerData;\n        \n        nextAction[batchNo] = 'PROCESSOR'; \n        \n        return true;\n    }\n    \n    /*get Importer data*/\n    function getImporterData(address batchNo) public onlyAuthCaller view returns(\n        uint256 quantity,\n        string memory shipName,\n        string memory shipNo,\n        uint256 arrivalDateTime,\n        string memory transportInfo,\n        string memory warehouseName,\n        string memory warehouseAddress,\n        uint256 importerId\n    ) {\n        \n        importer memory tmpData = batchImporter[batchNo];\n        \n        return (tmpData.quantity, \n                tmpData.shipName, \n                tmpData.shipNo, \n                tmpData.arrivalDateTime, \n                tmpData.transportInfo,\n                tmpData.warehouseName,\n                tmpData.warehouseAddress,\n                tmpData.importerId);\n                \n    }\n\n    /*set Proccessor data*/\n    function setProcessorData(\n        address batchNo,\n        uint256 _quantity, \n        string memory _temperature,\n        uint256 _rostingDuration,\n        string memory _internalBatchNo,\n        uint256 _packageDateTime,\n        string memory _processorName,\n        string memory _processorAddress\n    ) public onlyAuthCaller returns(bool){    \n        \n        processorData.quantity = _quantity;\n        processorData.temperature = _temperature;\n        processorData.rostingDuration = _rostingDuration;\n        processorData.internalBatchNo = _internalBatchNo;\n        processorData.packageDateTime = _packageDateTime;\n        processorData.processorName = _processorName;\n        processorData.processorAddress = _processorAddress;\n        \n        batchProcessor[batchNo] = processorData;\n        \n        nextAction[batchNo] = 'DONE'; \n        \n        return true;\n    }\n    \n    \n    /*get Processor data*/\n    function getProcessorData( address batchNo) public onlyAuthCaller view returns(\n        uint256 quantity,\n        string memory temperature,\n        uint256 rostingDuration,\n        string memory internalBatchNo,\n        uint256 packageDateTime,\n        string memory processorName,\n        string memory processorAddress\n    ) {\n\n        processor memory tmpData = batchProcessor[batchNo];\n        \n        \n        return (tmpData.quantity, \n                tmpData.temperature, \n                tmpData.rostingDuration, \n                tmpData.internalBatchNo,\n                tmpData.packageDateTime,\n                tmpData.processorName,\n                tmpData.processorAddress);\n        \n    }\n  \n}    \n",
  "sourcePath": "/home/abel/coffee-supplychain-ethereum/contracts/SupplyChainStorage.sol",
  "compiler": {
    "name": "solc",
    "version": "0.8.0+commit.c7dfd78e.Emscripten.clang"
  },
  "schemaVersion": "3.4.3",
  "updatedAt": "2021-11-14T17:06:49.280Z",
  "networkType": "ethereum",
  "devdoc": {
    "kind": "dev",
    "methods": {
      "renounceOwnership()": {
        "details": "Allows the current owner to relinquish control of the contract."
      },
      "transferOwnership(address)": {
        "details": "Allows the current owner to transfer control of the contract to a newOwner.",
        "params": {
          "newOwner": "The address to transfer ownership to."
        }
      }
    },
    "version": 1
  },
  "userdoc": {
    "kind": "user",
    "methods": {},
    "version": 1
  }
}