{
  "contractName": "SupplyChainUser",
  "abi": [
    {
      "inputs": [
        {
          "internalType": "address",
          "name": "_supplyChainAddress",
          "type": "address"
        }
      ],
      "stateMutability": "nonpayable",
      "type": "constructor"
    },
    {
      "anonymous": false,
      "inputs": [
        {
          "indexed": true,
          "internalType": "address",
          "name": "previousOwner",
          "type": "address"
        }
      ],
      "name": "OwnershipRenounced",
      "type": "event"
    },
    {
      "anonymous": false,
      "inputs": [
        {
          "indexed": true,
          "internalType": "address",
          "name": "previousOwner",
          "type": "address"
        },
        {
          "indexed": true,
          "internalType": "address",
          "name": "newOwner",
          "type": "address"
        }
      ],
      "name": "OwnershipTransferred",
      "type": "event"
    },
    {
      "anonymous": false,
      "inputs": [
        {
          "indexed": true,
          "internalType": "address",
          "name": "user",
          "type": "address"
        },
        {
          "indexed": false,
          "internalType": "string",
          "name": "role",
          "type": "string"
        }
      ],
      "name": "UserRoleUpdate",
      "type": "event"
    },
    {
      "anonymous": false,
      "inputs": [
        {
          "indexed": true,
          "internalType": "address",
          "name": "user",
          "type": "address"
        },
        {
          "indexed": false,
          "internalType": "string",
          "name": "name",
          "type": "string"
        },
        {
          "indexed": false,
          "internalType": "string",
          "name": "contactNo",
          "type": "string"
        },
        {
          "indexed": false,
          "internalType": "string",
          "name": "role",
          "type": "string"
        },
        {
          "indexed": false,
          "internalType": "bool",
          "name": "isActive",
          "type": "bool"
        },
        {
          "indexed": false,
          "internalType": "string",
          "name": "profileHash",
          "type": "string"
        }
      ],
      "name": "UserUpdate",
      "type": "event"
    },
    {
      "inputs": [],
      "name": "owner",
      "outputs": [
        {
          "internalType": "address",
          "name": "",
          "type": "address"
        }
      ],
      "stateMutability": "view",
      "type": "function",
      "constant": true
    },
    {
      "inputs": [],
      "name": "renounceOwnership",
      "outputs": [],
      "stateMutability": "nonpayable",
      "type": "function"
    },
    {
      "inputs": [
        {
          "internalType": "address",
          "name": "newOwner",
          "type": "address"
        }
      ],
      "name": "transferOwnership",
      "outputs": [],
      "stateMutability": "nonpayable",
      "type": "function"
    },
    {
      "inputs": [
        {
          "internalType": "string",
          "name": "_name",
          "type": "string"
        },
        {
          "internalType": "string",
          "name": "_contactNo",
          "type": "string"
        },
        {
          "internalType": "string",
          "name": "_role",
          "type": "string"
        },
        {
          "internalType": "bool",
          "name": "_isActive",
          "type": "bool"
        },
        {
          "internalType": "string",
          "name": "_profileHash",
          "type": "string"
        }
      ],
      "name": "updateUser",
      "outputs": [
        {
          "internalType": "bool",
          "name": "",
          "type": "bool"
        }
      ],
      "stateMutability": "nonpayable",
      "type": "function"
    },
    {
      "inputs": [
        {
          "internalType": "address",
          "name": "_userAddress",
          "type": "address"
        },
        {
          "internalType": "string",
          "name": "_name",
          "type": "string"
        },
        {
          "internalType": "string",
          "name": "_contactNo",
          "type": "string"
        },
        {
          "internalType": "string",
          "name": "_role",
          "type": "string"
        },
        {
          "internalType": "bool",
          "name": "_isActive",
          "type": "bool"
        },
        {
          "internalType": "string",
          "name": "_profileHash",
          "type": "string"
        }
      ],
      "name": "updateUserForAdmin",
      "outputs": [
        {
          "internalType": "bool",
          "name": "",
          "type": "bool"
        }
      ],
      "stateMutability": "nonpayable",
      "type": "function"
    },
    {
      "inputs": [
        {
          "internalType": "address",
          "name": "_userAddress",
          "type": "address"
        }
      ],
      "name": "getUser",
      "outputs": [
        {
          "internalType": "string",
          "name": "name",
          "type": "string"
        },
        {
          "internalType": "string",
          "name": "contactNo",
          "type": "string"
        },
        {
          "internalType": "string",
          "name": "role",
          "type": "string"
        },
        {
          "internalType": "bool",
          "name": "isActive",
          "type": "bool"
        },
        {
          "internalType": "string",
          "name": "profileHash",
          "type": "string"
        }
      ],
      "stateMutability": "view",
      "type": "function",
      "constant": true
    }
  ],
  "bytecode": "0x608060405234801561001057600080fd5b506040516110ec3803806110ec833981810160405281019061003291906100ce565b336000806101000a81548173ffffffffffffffffffffffffffffffffffffffff021916908373ffffffffffffffffffffffffffffffffffffffff16021790555080600160006101000a81548173ffffffffffffffffffffffffffffffffffffffff021916908373ffffffffffffffffffffffffffffffffffffffff16021790555050610140565b6000815190506100c881610129565b92915050565b6000602082840312156100e057600080fd5b60006100ee848285016100b9565b91505092915050565b600061010282610109565b9050919050565b600073ffffffffffffffffffffffffffffffffffffffff82169050919050565b610132816100f7565b811461013d57600080fd5b50565b610f9d8061014f6000396000f3fe608060405234801561001057600080fd5b50600436106100625760003560e01c80631e7d76aa146100675780636f77926b14610097578063715018a6146100cb5780638da5cb5b146100d5578063f2fde38b146100f3578063f5c8dee91461010f575b600080fd5b610081600480360381019061007c91906109a1565b61013f565b60405161008e9190610d50565b60405180910390f35b6100b160048036038101906100ac9190610978565b610341565b6040516100c2959493929190610d8d565b60405180910390f35b6100d3610451565b005b6100dd61054f565b6040516100ea9190610cb8565b60405180910390f35b61010d60048036038101906101089190610978565b610573565b005b61012960048036038101906101249190610ab3565b6106c2565b6040516101369190610d50565b60405180910390f35b60008060009054906101000a900473ffffffffffffffffffffffffffffffffffffffff1673ffffffffffffffffffffffffffffffffffffffff163373ffffffffffffffffffffffffffffffffffffffff161461019a57600080fd5b600073ffffffffffffffffffffffffffffffffffffffff168773ffffffffffffffffffffffffffffffffffffffff1614156101d457600080fd5b6000600160009054906101000a900473ffffffffffffffffffffffffffffffffffffffff1673ffffffffffffffffffffffffffffffffffffffff1663fb7a20af8989898989896040518763ffffffff1660e01b815260040161023b96959493929190610cd3565b602060405180830381600087803b15801561025557600080fd5b505af1158015610269573d6000803e3d6000fd5b505050506040513d601f19601f8201168201806040525081019061028d9190610a8a565b90508773ffffffffffffffffffffffffffffffffffffffff167f913673700610456ef7bb668e20badb980d1e4df0ba5bfbdbb6e7bfb0ddbcc6c988888888886040516102dd959493929190610d8d565b60405180910390a28773ffffffffffffffffffffffffffffffffffffffff167f3b419384c2ac88d62e2daac72f8c6e6398c474d91c63e814a307e3641762c8de8660405161032b9190610d6b565b60405180910390a2809150509695505050505050565b606080606060006060600073ffffffffffffffffffffffffffffffffffffffff168673ffffffffffffffffffffffffffffffffffffffff16141561038457600080fd5b600160009054906101000a900473ffffffffffffffffffffffffffffffffffffffff1673ffffffffffffffffffffffffffffffffffffffff16636f77926b876040518263ffffffff1660e01b81526004016103df9190610cb8565b60006040518083038186803b1580156103f757600080fd5b505afa15801561040b573d6000803e3d6000fd5b505050506040513d6000823e3d601f19601f820116820180604052508101906104349190610b8a565b809550819650829750839850849950505050505091939590929450565b60008054906101000a900473ffffffffffffffffffffffffffffffffffffffff1673ffffffffffffffffffffffffffffffffffffffff163373ffffffffffffffffffffffffffffffffffffffff16146104a957600080fd5b60008054906101000a900473ffffffffffffffffffffffffffffffffffffffff1673ffffffffffffffffffffffffffffffffffffffff167ff8df31144d9c2f0f6b59d69b8b98abd5459d07f2742c4df920b25aae33c6482060405160405180910390a260008060006101000a81548173ffffffffffffffffffffffffffffffffffffffff021916908373ffffffffffffffffffffffffffffffffffffffff160217905550565b60008054906101000a900473ffffffffffffffffffffffffffffffffffffffff1681565b60008054906101000a900473ffffffffffffffffffffffffffffffffffffffff1673ffffffffffffffffffffffffffffffffffffffff163373ffffffffffffffffffffffffffffffffffffffff16146105cb57600080fd5b600073ffffffffffffffffffffffffffffffffffffffff168173ffffffffffffffffffffffffffffffffffffffff16141561060557600080fd5b8073ffffffffffffffffffffffffffffffffffffffff1660008054906101000a900473ffffffffffffffffffffffffffffffffffffffff1673ffffffffffffffffffffffffffffffffffffffff167f8be0079c531659141344cd1fd0a4f28419497f9722a3daafe3b4186f6b6457e060405160405180910390a3806000806101000a81548173ffffffffffffffffffffffffffffffffffffffff021916908373ffffffffffffffffffffffffffffffffffffffff16021790555050565b60008073ffffffffffffffffffffffffffffffffffffffff163373ffffffffffffffffffffffffffffffffffffffff1614156106fd57600080fd5b6000600160009054906101000a900473ffffffffffffffffffffffffffffffffffffffff1673ffffffffffffffffffffffffffffffffffffffff1663fb7a20af3389898989896040518763ffffffff1660e01b815260040161076496959493929190610cd3565b602060405180830381600087803b15801561077e57600080fd5b505af1158015610792573d6000803e3d6000fd5b505050506040513d601f19601f820116820180604052508101906107b69190610a8a565b90503373ffffffffffffffffffffffffffffffffffffffff167f913673700610456ef7bb668e20badb980d1e4df0ba5bfbdbb6e7bfb0ddbcc6c98888888888604051610806959493929190610d8d565b60405180910390a23373ffffffffffffffffffffffffffffffffffffffff167f3b419384c2ac88d62e2daac72f8c6e6398c474d91c63e814a307e3641762c8de866040516108549190610d6b565b60405180910390a28091505095945050505050565b600061087c61087784610e2d565b610dfc565b90508281526020810184848401111561089457600080fd5b61089f848285610eb7565b509392505050565b60006108ba6108b584610e2d565b610dfc565b9050828152602081018484840111156108d257600080fd5b6108dd848285610ec6565b509392505050565b6000813590506108f481610f39565b92915050565b60008135905061090981610f50565b92915050565b60008151905061091e81610f50565b92915050565b600082601f83011261093557600080fd5b8135610945848260208601610869565b91505092915050565b600082601f83011261095f57600080fd5b815161096f8482602086016108a7565b91505092915050565b60006020828403121561098a57600080fd5b6000610998848285016108e5565b91505092915050565b60008060008060008060c087890312156109ba57600080fd5b60006109c889828a016108e5565b965050602087013567ffffffffffffffff8111156109e557600080fd5b6109f189828a01610924565b955050604087013567ffffffffffffffff811115610a0e57600080fd5b610a1a89828a01610924565b945050606087013567ffffffffffffffff811115610a3757600080fd5b610a4389828a01610924565b9350506080610a5489828a016108fa565b92505060a087013567ffffffffffffffff811115610a7157600080fd5b610a7d89828a01610924565b9150509295509295509295565b600060208284031215610a9c57600080fd5b6000610aaa8482850161090f565b91505092915050565b600080600080600060a08688031215610acb57600080fd5b600086013567ffffffffffffffff811115610ae557600080fd5b610af188828901610924565b955050602086013567ffffffffffffffff811115610b0e57600080fd5b610b1a88828901610924565b945050604086013567ffffffffffffffff811115610b3757600080fd5b610b4388828901610924565b9350506060610b54888289016108fa565b925050608086013567ffffffffffffffff811115610b7157600080fd5b610b7d88828901610924565b9150509295509295909350565b600080600080600060a08688031215610ba257600080fd5b600086015167ffffffffffffffff811115610bbc57600080fd5b610bc88882890161094e565b955050602086015167ffffffffffffffff811115610be557600080fd5b610bf18882890161094e565b945050604086015167ffffffffffffffff811115610c0e57600080fd5b610c1a8882890161094e565b9350506060610c2b8882890161090f565b925050608086015167ffffffffffffffff811115610c4857600080fd5b610c548882890161094e565b9150509295509295909350565b610c6a81610e79565b82525050565b610c7981610e8b565b82525050565b6000610c8a82610e5d565b610c948185610e68565b9350610ca4818560208601610ec6565b610cad81610f28565b840191505092915050565b6000602082019050610ccd6000830184610c61565b92915050565b600060c082019050610ce86000830189610c61565b8181036020830152610cfa8188610c7f565b90508181036040830152610d0e8187610c7f565b90508181036060830152610d228186610c7f565b9050610d316080830185610c70565b81810360a0830152610d438184610c7f565b9050979650505050505050565b6000602082019050610d656000830184610c70565b92915050565b60006020820190508181036000830152610d858184610c7f565b905092915050565b600060a0820190508181036000830152610da78188610c7f565b90508181036020830152610dbb8187610c7f565b90508181036040830152610dcf8186610c7f565b9050610dde6060830185610c70565b8181036080830152610df08184610c7f565b90509695505050505050565b6000604051905081810181811067ffffffffffffffff82111715610e2357610e22610ef9565b5b8060405250919050565b600067ffffffffffffffff821115610e4857610e47610ef9565b5b601f19601f8301169050602081019050919050565b600081519050919050565b600082825260208201905092915050565b6000610e8482610e97565b9050919050565b60008115159050919050565b600073ffffffffffffffffffffffffffffffffffffffff82169050919050565b82818337600083830152505050565b60005b83811015610ee4578082015181840152602081019050610ec9565b83811115610ef3576000848401525b50505050565b7f4e487b7100000000000000000000000000000000000000000000000000000000600052604160045260246000fd5b6000601f19601f8301169050919050565b610f4281610e79565b8114610f4d57600080fd5b50565b610f5981610e8b565b8114610f6457600080fd5b5056fea264697066735822122042f19d4d1a0538989d8d54e8a6699feb9181bc2d1a9241bef0413d3afde76cac64736f6c63430008000033",
  "immutableReferences": {},
  "source": "// SPDX-License-Identifier: MIT\npragma solidity ^0.8.0;\nimport \"./SupplyChainStorage.sol\";\nimport \"./Ownable.sol\";\n\ncontract SupplyChainUser is Ownable\n{\n     /*Events*/ \n    event UserUpdate(address indexed user, string name, string contactNo, string role, bool isActive, string profileHash);\n    event UserRoleUpdate(address indexed user, string role); \n    \n     /* Storage Variables */    \n    SupplyChainStorage supplyChainStorage;\n    \n    constructor(address _supplyChainAddress) public {\n        supplyChainStorage = SupplyChainStorage(_supplyChainAddress);\n    }\n    \n    \n     /* Create/Update User */\n    function updateUser(string memory _name, string memory _contactNo, string memory _role, bool _isActive,string memory _profileHash) public returns(bool)\n    {\n        require(msg.sender != address(0));\n        \n        /* Call Storage Contract */\n        bool status = supplyChainStorage.setUser(msg.sender, _name, _contactNo, _role, _isActive,_profileHash);\n        \n         /*call event*/\n        emit UserUpdate(msg.sender,_name,_contactNo,_role,_isActive,_profileHash);\n        emit UserRoleUpdate(msg.sender,_role);\n        \n        return status;\n    }\n    \n    /* Create/Update User For Admin  */\n    function updateUserForAdmin(\n        address _userAddress, \n        string memory _name, \n        string memory _contactNo, \n        string memory _role, \n        bool _isActive,\n        string memory _profileHash\n    ) public onlyOwner returns(bool) {\n        require(_userAddress != address(0));\n        \n        /* Call Storage Contract */\n        bool status = supplyChainStorage.setUser(_userAddress, _name, _contactNo, _role, _isActive, _profileHash);\n        \n         /*call event*/\n        emit UserUpdate(_userAddress,_name,_contactNo,_role,_isActive,_profileHash);\n        emit UserRoleUpdate(_userAddress,_role);\n        \n        return status;\n    }\n    \n    /* get User */\n    function getUser(address _userAddress) public view returns(\n        string memory name, \n        string memory contactNo, \n        string memory role, \n        bool isActive , \n        string memory profileHash\n    ) {\n        require(_userAddress != address(0));\n        \n        /*Getting value from struct*/\n       (name, contactNo, role, isActive, profileHash) = supplyChainStorage.getUser(_userAddress);\n       \n       return (name, contactNo, role, isActive, profileHash);\n    }\n}\n",
  "sourcePath": "/home/abel/coffee-supplychain-ethereum/contracts/SupplyChainUser.sol",
  "compiler": {
    "name": "solc",
    "version": "0.8.0+commit.c7dfd78e.Emscripten.clang"
  },
  "schemaVersion": "3.4.3",
  "updatedAt": "2021-11-14T17:06:49.353Z",
  "networkType": "ethereum",
  "devdoc": {
    "kind": "dev",
    "methods": {
      "renounceOwnership()": {
        "details": "Allows the current owner to relinquish control of the contract."
      },
      "transferOwnership(address)": {
        "details": "Allows the current owner to transfer control of the contract to a newOwner.",
        "params": {
          "newOwner": "The address to transfer ownership to."
        }
      }
    },
    "version": 1
  },
  "userdoc": {
    "kind": "user",
    "methods": {},
    "version": 1
  }
}